{
    "data": {
        "bytecode": {
            "linkReferences": {},
            "object": "608060405234801561001057600080fd5b506134a2806100206000396000f3fe608060405234801561001057600080fd5b506004361061002b5760003560e01c8063d7b3e2fe14610030575b600080fd5b61004a600480360381019061004591906100ac565b61004c565b005b82828260405161005b9061008a565b6100679392919061010e565b604051809103906000f080158015610083573d6000803e3d6000fd5b5050505050565b6133018061016c83390190565b6000813590506100a681610154565b92915050565b6000806000606084860312156100c5576100c461014f565b5b60006100d386828701610097565b93505060206100e486828701610097565b92505060406100f586828701610097565b9150509250925092565b61010881610145565b82525050565b600060608201905061012360008301866100ff565b61013060208301856100ff565b61013d60408301846100ff565b949350505050565b6000819050919050565b600080fd5b61015d81610145565b811461016857600080fd5b5056fe60806040523480156200001157600080fd5b5060405162003301380380620033018339818101604052810190620000379190620002ed565b6040518060400160405280600681526020017f4c75784f776e00000000000000000000000000000000000000000000000000008152506040518060400160405280600381526020017f4c584f00000000000000000000000000000000000000000000000000000000008152508160009080519060200190620000bb92919062000226565b508060019080519060200190620000d492919062000226565b505050620000f7620000eb6200015860201b60201c565b6200016060201b60201c565b8260078190555081600881905550806009819055507f7e7f6123fda3988d779b386f55826743b3a7a9db8a85f7905e5254d2076c54a760075460085460095460405162000147939291906200035a565b60405180910390a150505062000425565b600033905090565b6000600660009054906101000a900473ffffffffffffffffffffffffffffffffffffffff16905081600660006101000a81548173ffffffffffffffffffffffffffffffffffffffff021916908373ffffffffffffffffffffffffffffffffffffffff1602179055508173ffffffffffffffffffffffffffffffffffffffff168173ffffffffffffffffffffffffffffffffffffffff167f8be0079c531659141344cd1fd0a4f28419497f9722a3daafe3b4186f6b6457e060405160405180910390a35050565b8280546200023490620003a1565b90600052602060002090601f016020900481019282620002585760008555620002a4565b82601f106200027357805160ff1916838001178555620002a4565b82800160010185558215620002a4579182015b82811115620002a357825182559160200191906001019062000286565b5b509050620002b39190620002b7565b5090565b5b80821115620002d2576000816000905550600101620002b8565b5090565b600081519050620002e7816200040b565b92915050565b60008060006060848603121562000309576200030862000406565b5b60006200031986828701620002d6565b93505060206200032c86828701620002d6565b92505060406200033f86828701620002d6565b9150509250925092565b620003548162000397565b82525050565b600060608201905062000371600083018662000349565b62000380602083018562000349565b6200038f604083018462000349565b949350505050565b6000819050919050565b60006002820490506001821680620003ba57607f821691505b60208210811415620003d157620003d0620003d7565b5b50919050565b7f4e487b7100000000000000000000000000000000000000000000000000000000600052602260045260246000fd5b600080fd5b620004168162000397565b81146200042257600080fd5b50565b612ecc80620004356000396000f3fe608060405234801561001057600080fd5b50600436106101165760003560e01c8063715018a6116100a2578063b88d4fde11610071578063b88d4fde146102cb578063c87b56dd146102e7578063e985e9c514610317578063f2fde38b14610347578063faa07ec11461036357610116565b8063715018a6146102695780638da5cb5b1461027357806395d89b4114610291578063a22cb465146102af57610116565b806323b872dd116100e957806323b872dd146101b557806342842e0e146101d157806342966c68146101ed5780636352211e1461020957806370a082311461023957610116565b806301ffc9a71461011b57806306fdde031461014b578063081812fc14610169578063095ea7b314610199575b600080fd5b61013560048036038101906101309190611eaa565b61037f565b6040516101429190612324565b60405180910390f35b610153610461565b604051610160919061233f565b60405180910390f35b610183600480360381019061017e9190611f04565b6104f3565b6040516101909190612278565b60405180910390f35b6101b360048036038101906101ae9190611e03565b610578565b005b6101cf60048036038101906101ca9190611ced565b610690565b005b6101eb60048036038101906101e69190611ced565b6106f0565b005b61020760048036038101906102029190611f04565b610710565b005b610223600480360381019061021e9190611f04565b61076c565b6040516102309190612278565b60405180910390f35b610253600480360381019061024e9190611c80565b61081e565b6040516102609190612581565b60405180910390f35b6102716108d6565b005b61027b61095e565b6040516102889190612278565b60405180910390f35b610299610988565b6040516102a6919061233f565b60405180910390f35b6102c960048036038101906102c49190611dc3565b610a1a565b005b6102e560048036038101906102e09190611d40565b610a30565b005b61030160048036038101906102fc9190611f04565b610a92565b60405161030e919061233f565b60405180910390f35b610331600480360381019061032c9190611cad565b610b39565b60405161033e9190612324565b60405180910390f35b610361600480360381019061035c9190611c80565b610bcd565b005b61037d60048036038101906103789190611e43565b610cc5565b005b60007f80ac58cd000000000000000000000000000000000000000000000000000000007bffffffffffffffffffffffffffffffffffffffffffffffffffffffff1916827bffffffffffffffffffffffffffffffffffffffffffffffffffffffff1916148061044a57507f5b5e139f000000000000000000000000000000000000000000000000000000007bffffffffffffffffffffffffffffffffffffffffffffffffffffffff1916827bffffffffffffffffffffffffffffffffffffffffffffffffffffffff1916145b8061045a575061045982610d90565b5b9050919050565b606060008054610470906127a6565b80601f016020809104026020016040519081016040528092919081815260200182805461049c906127a6565b80156104e95780601f106104be576101008083540402835291602001916104e9565b820191906000526020600020905b8154815290600101906020018083116104cc57829003601f168201915b5050505050905090565b60006104fe82610dfa565b61053d576040517f08c379a0000000000000000000000000000000000000000000000000000000008152600401610534906124c1565b60405180910390fd5b6004600083815260200190815260200160002060009054906101000a900473ffffffffffffffffffffffffffffffffffffffff169050919050565b60006105838261076c565b90508073ffffffffffffffffffffffffffffffffffffffff168373ffffffffffffffffffffffffffffffffffffffff1614156105f4576040517f08c379a00000000000000000000000000000000000000000000000000000000081526004016105eb90612521565b60405180910390fd5b8073ffffffffffffffffffffffffffffffffffffffff16610613610e66565b73ffffffffffffffffffffffffffffffffffffffff16148061064257506106418161063c610e66565b610b39565b5b610681576040517f08c379a000000000000000000000000000000000000000000000000000000000815260040161067890612441565b60405180910390fd5b61068b8383610e6e565b505050565b6106a161069b610e66565b82610f27565b6106e0576040517f08c379a00000000000000000000000000000000000000000000000000000000081526004016106d790612541565b60405180910390fd5b6106eb838383611005565b505050565b61070b83838360405180602001604052806000815250610a30565b505050565b61072161071b610e66565b82610f27565b610760576040517f08c379a000000000000000000000000000000000000000000000000000000000815260040161075790612561565b60405180910390fd5b6107698161126c565b50565b6000806002600084815260200190815260200160002060009054906101000a900473ffffffffffffffffffffffffffffffffffffffff169050600073ffffffffffffffffffffffffffffffffffffffff168173ffffffffffffffffffffffffffffffffffffffff161415610815576040517f08c379a000000000000000000000000000000000000000000000000000000000815260040161080c90612481565b60405180910390fd5b80915050919050565b60008073ffffffffffffffffffffffffffffffffffffffff168273ffffffffffffffffffffffffffffffffffffffff16141561088f576040517f08c379a000000000000000000000000000000000000000000000000000000000815260040161088690612461565b60405180910390fd5b600360008373ffffffffffffffffffffffffffffffffffffffff1673ffffffffffffffffffffffffffffffffffffffff168152602001908152602001600020549050919050565b6108de610e66565b73ffffffffffffffffffffffffffffffffffffffff166108fc61095e565b73ffffffffffffffffffffffffffffffffffffffff1614610952576040517f08c379a0000000000000000000000000000000000000000000000000000000008152600401610949906124e1565b60405180910390fd5b61095c6000611389565b565b6000600660009054906101000a900473ffffffffffffffffffffffffffffffffffffffff16905090565b606060018054610997906127a6565b80601f01602080910402602001604051908101604052809291908181526020018280546109c3906127a6565b8015610a105780601f106109e557610100808354040283529160200191610a10565b820191906000526020600020905b8154815290600101906020018083116109f357829003601f168201915b5050505050905090565b610a2c610a25610e66565b838361144f565b5050565b610a41610a3b610e66565b83610f27565b610a80576040517f08c379a0000000000000000000000000000000000000000000000000000000008152600401610a7790612541565b60405180910390fd5b610a8c848484846115bc565b50505050565b6060610a9d82610dfa565b610adc576040517f08c379a0000000000000000000000000000000000000000000000000000000008152600401610ad390612501565b60405180910390fd5b6000610ae6611618565b90506000815111610b065760405180602001604052806000815250610b31565b80610b108461162f565b604051602001610b21929190612254565b6040516020818303038152906040525b915050919050565b6000600560008473ffffffffffffffffffffffffffffffffffffffff1673ffffffffffffffffffffffffffffffffffffffff16815260200190815260200160002060008373ffffffffffffffffffffffffffffffffffffffff1673ffffffffffffffffffffffffffffffffffffffff16815260200190815260200160002060009054906101000a900460ff16905092915050565b610bd5610e66565b73ffffffffffffffffffffffffffffffffffffffff16610bf361095e565b73ffffffffffffffffffffffffffffffffffffffff1614610c49576040517f08c379a0000000000000000000000000000000000000000000000000000000008152600401610c40906124e1565b60405180910390fd5b600073ffffffffffffffffffffffffffffffffffffffff168173ffffffffffffffffffffffffffffffffffffffff161415610cb9576040517f08c379a0000000000000000000000000000000000000000000000000000000008152600401610cb090612381565b60405180910390fd5b610cc281611389565b50565b610ccd610e66565b73ffffffffffffffffffffffffffffffffffffffff16610ceb61095e565b73ffffffffffffffffffffffffffffffffffffffff1614610d41576040517f08c379a0000000000000000000000000000000000000000000000000000000008152600401610d38906124e1565b60405180910390fd5b610d4d84600954611790565b7fedb98d9eebf33e9eac68168e88c7a6793f0fdea0b80c974ae4cdefe3bfe7667b84848484604051610d8294939291906122df565b60405180910390a150505050565b60007f01ffc9a7000000000000000000000000000000000000000000000000000000007bffffffffffffffffffffffffffffffffffffffffffffffffffffffff1916827bffffffffffffffffffffffffffffffffffffffffffffffffffffffff1916149050919050565b60008073ffffffffffffffffffffffffffffffffffffffff166002600084815260200190815260200160002060009054906101000a900473ffffffffffffffffffffffffffffffffffffffff1673ffffffffffffffffffffffffffffffffffffffff1614159050919050565b600033905090565b816004600083815260200190815260200160002060006101000a81548173ffffffffffffffffffffffffffffffffffffffff021916908373ffffffffffffffffffffffffffffffffffffffff160217905550808273ffffffffffffffffffffffffffffffffffffffff16610ee18361076c565b73ffffffffffffffffffffffffffffffffffffffff167f8c5be1e5ebec7d5bd14f71427d1e84f3dd0314c0f7b2291e5b200ac8c7c3b92560405160405180910390a45050565b6000610f3282610dfa565b610f71576040517f08c379a0000000000000000000000000000000000000000000000000000000008152600401610f6890612421565b60405180910390fd5b6000610f7c8361076c565b90508073ffffffffffffffffffffffffffffffffffffffff168473ffffffffffffffffffffffffffffffffffffffff161480610feb57508373ffffffffffffffffffffffffffffffffffffffff16610fd3846104f3565b73ffffffffffffffffffffffffffffffffffffffff16145b80610ffc5750610ffb8185610b39565b5b91505092915050565b8273ffffffffffffffffffffffffffffffffffffffff166110258261076c565b73ffffffffffffffffffffffffffffffffffffffff161461107b576040517f08c379a0000000000000000000000000000000000000000000000000000000008152600401611072906123a1565b60405180910390fd5b600073ffffffffffffffffffffffffffffffffffffffff168273ffffffffffffffffffffffffffffffffffffffff1614156110eb576040517f08c379a00000000000000000000000000000000000000000000000000000000081526004016110e2906123e1565b60405180910390fd5b6110f68383836117ae565b611101600082610e6e565b6001600360008573ffffffffffffffffffffffffffffffffffffffff1673ffffffffffffffffffffffffffffffffffffffff168152602001908152602001600020600082825461115191906126bc565b925050819055506001600360008473ffffffffffffffffffffffffffffffffffffffff1673ffffffffffffffffffffffffffffffffffffffff16815260200190815260200160002060008282546111a89190612635565b92505081905550816002600083815260200190815260200160002060006101000a81548173ffffffffffffffffffffffffffffffffffffffff021916908373ffffffffffffffffffffffffffffffffffffffff160217905550808273ffffffffffffffffffffffffffffffffffffffff168473ffffffffffffffffffffffffffffffffffffffff167fddf252ad1be2c89b69c2b068fc378daa952ba7f163c4a11628f55a4df523b3ef60405160405180910390a46112678383836117b3565b505050565b60006112778261076c565b9050611285816000846117ae565b611290600083610e6e565b6001600360008373ffffffffffffffffffffffffffffffffffffffff1673ffffffffffffffffffffffffffffffffffffffff16815260200190815260200160002060008282546112e091906126bc565b925050819055506002600083815260200190815260200160002060006101000a81549073ffffffffffffffffffffffffffffffffffffffff021916905581600073ffffffffffffffffffffffffffffffffffffffff168273ffffffffffffffffffffffffffffffffffffffff167fddf252ad1be2c89b69c2b068fc378daa952ba7f163c4a11628f55a4df523b3ef60405160405180910390a4611385816000846117b3565b5050565b6000600660009054906101000a900473ffffffffffffffffffffffffffffffffffffffff16905081600660006101000a81548173ffffffffffffffffffffffffffffffffffffffff021916908373ffffffffffffffffffffffffffffffffffffffff1602179055508173ffffffffffffffffffffffffffffffffffffffff168173ffffffffffffffffffffffffffffffffffffffff167f8be0079c531659141344cd1fd0a4f28419497f9722a3daafe3b4186f6b6457e060405160405180910390a35050565b8173ffffffffffffffffffffffffffffffffffffffff168373ffffffffffffffffffffffffffffffffffffffff1614156114be576040517f08c379a00000000000000000000000000000000000000000000000000000000081526004016114b590612401565b60405180910390fd5b80600560008573ffffffffffffffffffffffffffffffffffffffff1673ffffffffffffffffffffffffffffffffffffffff16815260200190815260200160002060008473ffffffffffffffffffffffffffffffffffffffff1673ffffffffffffffffffffffffffffffffffffffff16815260200190815260200160002060006101000a81548160ff0219169083151502179055508173ffffffffffffffffffffffffffffffffffffffff168373ffffffffffffffffffffffffffffffffffffffff167f17307eab39ab6107e8899845ad3d59bd9653f200f220920489ca2b5937696c31836040516115af9190612324565b60405180910390a3505050565b6115c7848484611005565b6115d3848484846117b8565b611612576040517f08c379a000000000000000000000000000000000000000000000000000000000815260040161160990612361565b60405180910390fd5b50505050565b606060405180602001604052806000815250905090565b60606000821415611677576040518060400160405280600181526020017f3000000000000000000000000000000000000000000000000000000000000000815250905061178b565b600082905060005b600082146116a957808061169290612809565b915050600a826116a2919061268b565b915061167f565b60008167ffffffffffffffff8111156116c5576116c461293f565b5b6040519080825280601f01601f1916602001820160405280156116f75781602001600182028036833780820191505090505b5090505b600085146117845760018261171091906126bc565b9150600a8561171f9190612852565b603061172b9190612635565b60f81b81838151811061174157611740612910565b5b60200101907effffffffffffffffffffffffffffffffffffffffffffffffffffffffffffff1916908160001a905350600a8561177d919061268b565b94506116fb565b8093505050505b919050565b6117aa82826040518060200160405280600081525061194f565b5050565b505050565b505050565b60006117d98473ffffffffffffffffffffffffffffffffffffffff166119aa565b15611942578373ffffffffffffffffffffffffffffffffffffffff1663150b7a02611802610e66565b8786866040518563ffffffff1660e01b81526004016118249493929190612293565b602060405180830381600087803b15801561183e57600080fd5b505af192505050801561186f57506040513d601f19601f8201168201806040525081019061186c9190611ed7565b60015b6118f2573d806000811461189f576040519150601f19603f3d011682016040523d82523d6000602084013e6118a4565b606091505b506000815114156118ea576040517f08c379a00000000000000000000000000000000000000000000000000000000081526004016118e190612361565b60405180910390fd5b805181602001fd5b63150b7a0260e01b7bffffffffffffffffffffffffffffffffffffffffffffffffffffffff1916817bffffffffffffffffffffffffffffffffffffffffffffffffffffffff191614915050611947565b600190505b949350505050565b61195983836119cd565b61196660008484846117b8565b6119a5576040517f08c379a000000000000000000000000000000000000000000000000000000000815260040161199c90612361565b60405180910390fd5b505050565b6000808273ffffffffffffffffffffffffffffffffffffffff163b119050919050565b600073ffffffffffffffffffffffffffffffffffffffff168273ffffffffffffffffffffffffffffffffffffffff161415611a3d576040517f08c379a0000000000000000000000000000000000000000000000000000000008152600401611a34906124a1565b60405180910390fd5b611a4681610dfa565b15611a86576040517f08c379a0000000000000000000000000000000000000000000000000000000008152600401611a7d906123c1565b60405180910390fd5b611a92600083836117ae565b6001600360008473ffffffffffffffffffffffffffffffffffffffff1673ffffffffffffffffffffffffffffffffffffffff1681526020019081526020016000206000828254611ae29190612635565b92505081905550816002600083815260200190815260200160002060006101000a81548173ffffffffffffffffffffffffffffffffffffffff021916908373ffffffffffffffffffffffffffffffffffffffff160217905550808273ffffffffffffffffffffffffffffffffffffffff16600073ffffffffffffffffffffffffffffffffffffffff167fddf252ad1be2c89b69c2b068fc378daa952ba7f163c4a11628f55a4df523b3ef60405160405180910390a4611ba3600083836117b3565b5050565b6000611bba611bb5846125c1565b61259c565b905082815260208101848484011115611bd657611bd5612973565b5b611be1848285612764565b509392505050565b600081359050611bf881612e3a565b92915050565b600081359050611c0d81612e51565b92915050565b600081359050611c2281612e68565b92915050565b600081519050611c3781612e68565b92915050565b600082601f830112611c5257611c5161296e565b5b8135611c62848260208601611ba7565b91505092915050565b600081359050611c7a81612e7f565b92915050565b600060208284031215611c9657611c9561297d565b5b6000611ca484828501611be9565b91505092915050565b60008060408385031215611cc457611cc361297d565b5b6000611cd285828601611be9565b9250506020611ce385828601611be9565b9150509250929050565b600080600060608486031215611d0657611d0561297d565b5b6000611d1486828701611be9565b9350506020611d2586828701611be9565b9250506040611d3686828701611c6b565b9150509250925092565b60008060008060808587031215611d5a57611d5961297d565b5b6000611d6887828801611be9565b9450506020611d7987828801611be9565b9350506040611d8a87828801611c6b565b925050606085013567ffffffffffffffff811115611dab57611daa612978565b5b611db787828801611c3d565b91505092959194509250565b60008060408385031215611dda57611dd961297d565b5b6000611de885828601611be9565b9250506020611df985828601611bfe565b9150509250929050565b60008060408385031215611e1a57611e1961297d565b5b6000611e2885828601611be9565b9250506020611e3985828601611c6b565b9150509250929050565b60008060008060808587031215611e5d57611e5c61297d565b5b6000611e6b87828801611be9565b9450506020611e7c87828801611c6b565b9350506040611e8d87828801611c6b565b9250506060611e9e87828801611c6b565b91505092959194509250565b600060208284031215611ec057611ebf61297d565b5b6000611ece84828501611c13565b91505092915050565b600060208284031215611eed57611eec61297d565b5b6000611efb84828501611c28565b91505092915050565b600060208284031215611f1a57611f1961297d565b5b6000611f2884828501611c6b565b91505092915050565b611f3a816126f0565b82525050565b611f4981612702565b82525050565b6000611f5a826125f2565b611f648185612608565b9350611f74818560208601612773565b611f7d81612982565b840191505092915050565b6000611f93826125fd565b611f9d8185612619565b9350611fad818560208601612773565b611fb681612982565b840191505092915050565b6000611fcc826125fd565b611fd6818561262a565b9350611fe6818560208601612773565b80840191505092915050565b6000611fff603283612619565b915061200a82612993565b604082019050919050565b6000612022602683612619565b915061202d826129e2565b604082019050919050565b6000612045602583612619565b915061205082612a31565b604082019050919050565b6000612068601c83612619565b915061207382612a80565b602082019050919050565b600061208b602483612619565b915061209682612aa9565b604082019050919050565b60006120ae601983612619565b91506120b982612af8565b602082019050919050565b60006120d1602c83612619565b91506120dc82612b21565b604082019050919050565b60006120f4603883612619565b91506120ff82612b70565b604082019050919050565b6000612117602a83612619565b915061212282612bbf565b604082019050919050565b600061213a602983612619565b915061214582612c0e565b604082019050919050565b600061215d602083612619565b915061216882612c5d565b602082019050919050565b6000612180602c83612619565b915061218b82612c86565b604082019050919050565b60006121a3602083612619565b91506121ae82612cd5565b602082019050919050565b60006121c6602f83612619565b91506121d182612cfe565b604082019050919050565b60006121e9602183612619565b91506121f482612d4d565b604082019050919050565b600061220c603183612619565b915061221782612d9c565b604082019050919050565b600061222f603083612619565b915061223a82612deb565b604082019050919050565b61224e8161275a565b82525050565b60006122608285611fc1565b915061226c8284611fc1565b91508190509392505050565b600060208201905061228d6000830184611f31565b92915050565b60006080820190506122a86000830187611f31565b6122b56020830186611f31565b6122c26040830185612245565b81810360608301526122d48184611f4f565b905095945050505050565b60006080820190506122f46000830187611f31565b6123016020830186612245565b61230e6040830185612245565b61231b6060830184612245565b95945050505050565b60006020820190506123396000830184611f40565b92915050565b600060208201905081810360008301526123598184611f88565b905092915050565b6000602082019050818103600083015261237a81611ff2565b9050919050565b6000602082019050818103600083015261239a81612015565b9050919050565b600060208201905081810360008301526123ba81612038565b9050919050565b600060208201905081810360008301526123da8161205b565b9050919050565b600060208201905081810360008301526123fa8161207e565b9050919050565b6000602082019050818103600083015261241a816120a1565b9050919050565b6000602082019050818103600083015261243a816120c4565b9050919050565b6000602082019050818103600083015261245a816120e7565b9050919050565b6000602082019050818103600083015261247a8161210a565b9050919050565b6000602082019050818103600083015261249a8161212d565b9050919050565b600060208201905081810360008301526124ba81612150565b9050919050565b600060208201905081810360008301526124da81612173565b9050919050565b600060208201905081810360008301526124fa81612196565b9050919050565b6000602082019050818103600083015261251a816121b9565b9050919050565b6000602082019050818103600083015261253a816121dc565b9050919050565b6000602082019050818103600083015261255a816121ff565b9050919050565b6000602082019050818103600083015261257a81612222565b9050919050565b60006020820190506125966000830184612245565b92915050565b60006125a66125b7565b90506125b282826127d8565b919050565b6000604051905090565b600067ffffffffffffffff8211156125dc576125db61293f565b5b6125e582612982565b9050602081019050919050565b600081519050919050565b600081519050919050565b600082825260208201905092915050565b600082825260208201905092915050565b600081905092915050565b60006126408261275a565b915061264b8361275a565b9250827fffffffffffffffffffffffffffffffffffffffffffffffffffffffffffffffff038211156126805761267f612883565b5b828201905092915050565b60006126968261275a565b91506126a18361275a565b9250826126b1576126b06128b2565b5b828204905092915050565b60006126c78261275a565b91506126d28361275a565b9250828210156126e5576126e4612883565b5b828203905092915050565b60006126fb8261273a565b9050919050565b60008115159050919050565b60007fffffffff0000000000000000000000000000000000000000000000000000000082169050919050565b600073ffffffffffffffffffffffffffffffffffffffff82169050919050565b6000819050919050565b82818337600083830152505050565b60005b83811015612791578082015181840152602081019050612776565b838111156127a0576000848401525b50505050565b600060028204905060018216806127be57607f821691505b602082108114156127d2576127d16128e1565b5b50919050565b6127e182612982565b810181811067ffffffffffffffff82111715612800576127ff61293f565b5b80604052505050565b60006128148261275a565b91507fffffffffffffffffffffffffffffffffffffffffffffffffffffffffffffffff82141561284757612846612883565b5b600182019050919050565b600061285d8261275a565b91506128688361275a565b925082612878576128776128b2565b5b828206905092915050565b7f4e487b7100000000000000000000000000000000000000000000000000000000600052601160045260246000fd5b7f4e487b7100000000000000000000000000000000000000000000000000000000600052601260045260246000fd5b7f4e487b7100000000000000000000000000000000000000000000000000000000600052602260045260246000fd5b7f4e487b7100000000000000000000000000000000000000000000000000000000600052603260045260246000fd5b7f4e487b7100000000000000000000000000000000000000000000000000000000600052604160045260246000fd5b600080fd5b600080fd5b600080fd5b600080fd5b6000601f19601f8301169050919050565b7f4552433732313a207472616e7366657220746f206e6f6e20455243373231526560008201527f63656976657220696d706c656d656e7465720000000000000000000000000000602082015250565b7f4f776e61626c653a206e6577206f776e657220697320746865207a65726f206160008201527f6464726573730000000000000000000000000000000000000000000000000000602082015250565b7f4552433732313a207472616e736665722066726f6d20696e636f72726563742060008201527f6f776e6572000000000000000000000000000000000000000000000000000000602082015250565b7f4552433732313a20746f6b656e20616c7265616479206d696e74656400000000600082015250565b7f4552433732313a207472616e7366657220746f20746865207a65726f2061646460008201527f7265737300000000000000000000000000000000000000000000000000000000602082015250565b7f4552433732313a20617070726f766520746f2063616c6c657200000000000000600082015250565b7f4552433732313a206f70657261746f7220717565727920666f72206e6f6e657860008201527f697374656e7420746f6b656e0000000000000000000000000000000000000000602082015250565b7f4552433732313a20617070726f76652063616c6c6572206973206e6f74206f7760008201527f6e6572206e6f7220617070726f76656420666f7220616c6c0000000000000000602082015250565b7f4552433732313a2062616c616e636520717565727920666f7220746865207a6560008201527f726f206164647265737300000000000000000000000000000000000000000000602082015250565b7f4552433732313a206f776e657220717565727920666f72206e6f6e657869737460008201527f656e7420746f6b656e0000000000000000000000000000000000000000000000602082015250565b7f4552433732313a206d696e7420746f20746865207a65726f2061646472657373600082015250565b7f4552433732313a20617070726f76656420717565727920666f72206e6f6e657860008201527f697374656e7420746f6b656e0000000000000000000000000000000000000000602082015250565b7f4f776e61626c653a2063616c6c6572206973206e6f7420746865206f776e6572600082015250565b7f4552433732314d657461646174613a2055524920717565727920666f72206e6f60008201527f6e6578697374656e7420746f6b656e0000000000000000000000000000000000602082015250565b7f4552433732313a20617070726f76616c20746f2063757272656e74206f776e6560008201527f7200000000000000000000000000000000000000000000000000000000000000602082015250565b7f4552433732313a207472616e736665722063616c6c6572206973206e6f74206f60008201527f776e6572206e6f7220617070726f766564000000000000000000000000000000602082015250565b7f4552433732314275726e61626c653a2063616c6c6572206973206e6f74206f7760008201527f6e6572206e6f7220617070726f76656400000000000000000000000000000000602082015250565b612e43816126f0565b8114612e4e57600080fd5b50565b612e5a81612702565b8114612e6557600080fd5b50565b612e718161270e565b8114612e7c57600080fd5b50565b612e888161275a565b8114612e9357600080fd5b5056fea26469706673582212208dc8c9b034490311a050c613eb8382052d3896e346850c71ed75903be0b43d9a64736f6c63430008070033a26469706673582212204d82015c7df22390fd527874bfce401fc33388d5b7d87023b0fc905ac35022b264736f6c63430008070033",
            "opcodes": "PUSH1 0x80 PUSH1 0x40 MSTORE CALLVALUE DUP1 ISZERO PUSH2 0x10 JUMPI PUSH1 0x0 DUP1 REVERT JUMPDEST POP PUSH2 0x34A2 DUP1 PUSH2 0x20 PUSH1 0x0 CODECOPY PUSH1 0x0 RETURN INVALID PUSH1 0x80 PUSH1 0x40 MSTORE CALLVALUE DUP1 ISZERO PUSH2 0x10 JUMPI PUSH1 0x0 DUP1 REVERT JUMPDEST POP PUSH1 0x4 CALLDATASIZE LT PUSH2 0x2B JUMPI PUSH1 0x0 CALLDATALOAD PUSH1 0xE0 SHR DUP1 PUSH4 0xD7B3E2FE EQ PUSH2 0x30 JUMPI JUMPDEST PUSH1 0x0 DUP1 REVERT JUMPDEST PUSH2 0x4A PUSH1 0x4 DUP1 CALLDATASIZE SUB DUP2 ADD SWAP1 PUSH2 0x45 SWAP2 SWAP1 PUSH2 0xAC JUMP JUMPDEST PUSH2 0x4C JUMP JUMPDEST STOP JUMPDEST DUP3 DUP3 DUP3 PUSH1 0x40 MLOAD PUSH2 0x5B SWAP1 PUSH2 0x8A JUMP JUMPDEST PUSH2 0x67 SWAP4 SWAP3 SWAP2 SWAP1 PUSH2 0x10E JUMP JUMPDEST PUSH1 0x40 MLOAD DUP1 SWAP2 SUB SWAP1 PUSH1 0x0 CREATE DUP1 ISZERO DUP1 ISZERO PUSH2 0x83 JUMPI RETURNDATASIZE PUSH1 0x0 DUP1 RETURNDATACOPY RETURNDATASIZE PUSH1 0x0 REVERT JUMPDEST POP POP POP POP POP JUMP JUMPDEST PUSH2 0x3301 DUP1 PUSH2 0x16C DUP4 CODECOPY ADD SWAP1 JUMP JUMPDEST PUSH1 0x0 DUP2 CALLDATALOAD SWAP1 POP PUSH2 0xA6 DUP2 PUSH2 0x154 JUMP JUMPDEST SWAP3 SWAP2 POP POP JUMP JUMPDEST PUSH1 0x0 DUP1 PUSH1 0x0 PUSH1 0x60 DUP5 DUP7 SUB SLT ISZERO PUSH2 0xC5 JUMPI PUSH2 0xC4 PUSH2 0x14F JUMP JUMPDEST JUMPDEST PUSH1 0x0 PUSH2 0xD3 DUP7 DUP3 DUP8 ADD PUSH2 0x97 JUMP JUMPDEST SWAP4 POP POP PUSH1 0x20 PUSH2 0xE4 DUP7 DUP3 DUP8 ADD PUSH2 0x97 JUMP JUMPDEST SWAP3 POP POP PUSH1 0x40 PUSH2 0xF5 DUP7 DUP3 DUP8 ADD PUSH2 0x97 JUMP JUMPDEST SWAP2 POP POP SWAP3 POP SWAP3 POP SWAP3 JUMP JUMPDEST PUSH2 0x108 DUP2 PUSH2 0x145 JUMP JUMPDEST DUP3 MSTORE POP POP JUMP JUMPDEST PUSH1 0x0 PUSH1 0x60 DUP3 ADD SWAP1 POP PUSH2 0x123 PUSH1 0x0 DUP4 ADD DUP7 PUSH2 0xFF JUMP JUMPDEST PUSH2 0x130 PUSH1 0x20 DUP4 ADD DUP6 PUSH2 0xFF JUMP JUMPDEST PUSH2 0x13D PUSH1 0x40 DUP4 ADD DUP5 PUSH2 0xFF JUMP JUMPDEST SWAP5 SWAP4 POP POP POP POP JUMP JUMPDEST PUSH1 0x0 DUP2 SWAP1 POP SWAP2 SWAP1 POP JUMP JUMPDEST PUSH1 0x0 DUP1 REVERT JUMPDEST PUSH2 0x15D DUP2 PUSH2 0x145 JUMP JUMPDEST DUP2 EQ PUSH2 0x168 JUMPI PUSH1 0x0 DUP1 REVERT JUMPDEST POP JUMP INVALID PUSH1 0x80 PUSH1 0x40 MSTORE CALLVALUE DUP1 ISZERO PUSH3 0x11 JUMPI PUSH1 0x0 DUP1 REVERT JUMPDEST POP PUSH1 0x40 MLOAD PUSH3 0x3301 CODESIZE SUB DUP1 PUSH3 0x3301 DUP4 CODECOPY DUP2 DUP2 ADD PUSH1 0x40 MSTORE DUP2 ADD SWAP1 PUSH3 0x37 SWAP2 SWAP1 PUSH3 0x2ED JUMP JUMPDEST PUSH1 0x40 MLOAD DUP1 PUSH1 0x40 ADD PUSH1 0x40 MSTORE DUP1 PUSH1 0x6 DUP2 MSTORE PUSH1 0x20 ADD PUSH32 0x4C75784F776E0000000000000000000000000000000000000000000000000000 DUP2 MSTORE POP PUSH1 0x40 MLOAD DUP1 PUSH1 0x40 ADD PUSH1 0x40 MSTORE DUP1 PUSH1 0x3 DUP2 MSTORE PUSH1 0x20 ADD PUSH32 0x4C584F0000000000000000000000000000000000000000000000000000000000 DUP2 MSTORE POP DUP2 PUSH1 0x0 SWAP1 DUP1 MLOAD SWAP1 PUSH1 0x20 ADD SWAP1 PUSH3 0xBB SWAP3 SWAP2 SWAP1 PUSH3 0x226 JUMP JUMPDEST POP DUP1 PUSH1 0x1 SWAP1 DUP1 MLOAD SWAP1 PUSH1 0x20 ADD SWAP1 PUSH3 0xD4 SWAP3 SWAP2 SWAP1 PUSH3 0x226 JUMP JUMPDEST POP POP POP PUSH3 0xF7 PUSH3 0xEB PUSH3 0x158 PUSH1 0x20 SHL PUSH1 0x20 SHR JUMP JUMPDEST PUSH3 0x160 PUSH1 0x20 SHL PUSH1 0x20 SHR JUMP JUMPDEST DUP3 PUSH1 0x7 DUP2 SWAP1 SSTORE POP DUP2 PUSH1 0x8 DUP2 SWAP1 SSTORE POP DUP1 PUSH1 0x9 DUP2 SWAP1 SSTORE POP PUSH32 0x7E7F6123FDA3988D779B386F55826743B3A7A9DB8A85F7905E5254D2076C54A7 PUSH1 0x7 SLOAD PUSH1 0x8 SLOAD PUSH1 0x9 SLOAD PUSH1 0x40 MLOAD PUSH3 0x147 SWAP4 SWAP3 SWAP2 SWAP1 PUSH3 0x35A JUMP JUMPDEST PUSH1 0x40 MLOAD DUP1 SWAP2 SUB SWAP1 LOG1 POP POP POP PUSH3 0x425 JUMP JUMPDEST PUSH1 0x0 CALLER SWAP1 POP SWAP1 JUMP JUMPDEST PUSH1 0x0 PUSH1 0x6 PUSH1 0x0 SWAP1 SLOAD SWAP1 PUSH2 0x100 EXP SWAP1 DIV PUSH20 0xFFFFFFFFFFFFFFFFFFFFFFFFFFFFFFFFFFFFFFFF AND SWAP1 POP DUP2 PUSH1 0x6 PUSH1 0x0 PUSH2 0x100 EXP DUP2 SLOAD DUP2 PUSH20 0xFFFFFFFFFFFFFFFFFFFFFFFFFFFFFFFFFFFFFFFF MUL NOT AND SWAP1 DUP4 PUSH20 0xFFFFFFFFFFFFFFFFFFFFFFFFFFFFFFFFFFFFFFFF AND MUL OR SWAP1 SSTORE POP DUP2 PUSH20 0xFFFFFFFFFFFFFFFFFFFFFFFFFFFFFFFFFFFFFFFF AND DUP2 PUSH20 0xFFFFFFFFFFFFFFFFFFFFFFFFFFFFFFFFFFFFFFFF AND PUSH32 0x8BE0079C531659141344CD1FD0A4F28419497F9722A3DAAFE3B4186F6B6457E0 PUSH1 0x40 MLOAD PUSH1 0x40 MLOAD DUP1 SWAP2 SUB SWAP1 LOG3 POP POP JUMP JUMPDEST DUP3 DUP1 SLOAD PUSH3 0x234 SWAP1 PUSH3 0x3A1 JUMP JUMPDEST SWAP1 PUSH1 0x0 MSTORE PUSH1 0x20 PUSH1 0x0 KECCAK256 SWAP1 PUSH1 0x1F ADD PUSH1 0x20 SWAP1 DIV DUP2 ADD SWAP3 DUP3 PUSH3 0x258 JUMPI PUSH1 0x0 DUP6 SSTORE PUSH3 0x2A4 JUMP JUMPDEST DUP3 PUSH1 0x1F LT PUSH3 0x273 JUMPI DUP1 MLOAD PUSH1 0xFF NOT AND DUP4 DUP1 ADD OR DUP6 SSTORE PUSH3 0x2A4 JUMP JUMPDEST DUP3 DUP1 ADD PUSH1 0x1 ADD DUP6 SSTORE DUP3 ISZERO PUSH3 0x2A4 JUMPI SWAP2 DUP3 ADD JUMPDEST DUP3 DUP2 GT ISZERO PUSH3 0x2A3 JUMPI DUP3 MLOAD DUP3 SSTORE SWAP2 PUSH1 0x20 ADD SWAP2 SWAP1 PUSH1 0x1 ADD SWAP1 PUSH3 0x286 JUMP JUMPDEST JUMPDEST POP SWAP1 POP PUSH3 0x2B3 SWAP2 SWAP1 PUSH3 0x2B7 JUMP JUMPDEST POP SWAP1 JUMP JUMPDEST JUMPDEST DUP1 DUP3 GT ISZERO PUSH3 0x2D2 JUMPI PUSH1 0x0 DUP2 PUSH1 0x0 SWAP1 SSTORE POP PUSH1 0x1 ADD PUSH3 0x2B8 JUMP JUMPDEST POP SWAP1 JUMP JUMPDEST PUSH1 0x0 DUP2 MLOAD SWAP1 POP PUSH3 0x2E7 DUP2 PUSH3 0x40B JUMP JUMPDEST SWAP3 SWAP2 POP POP JUMP JUMPDEST PUSH1 0x0 DUP1 PUSH1 0x0 PUSH1 0x60 DUP5 DUP7 SUB SLT ISZERO PUSH3 0x309 JUMPI PUSH3 0x308 PUSH3 0x406 JUMP JUMPDEST JUMPDEST PUSH1 0x0 PUSH3 0x319 DUP7 DUP3 DUP8 ADD PUSH3 0x2D6 JUMP JUMPDEST SWAP4 POP POP PUSH1 0x20 PUSH3 0x32C DUP7 DUP3 DUP8 ADD PUSH3 0x2D6 JUMP JUMPDEST SWAP3 POP POP PUSH1 0x40 PUSH3 0x33F DUP7 DUP3 DUP8 ADD PUSH3 0x2D6 JUMP JUMPDEST SWAP2 POP POP SWAP3 POP SWAP3 POP SWAP3 JUMP JUMPDEST PUSH3 0x354 DUP2 PUSH3 0x397 JUMP JUMPDEST DUP3 MSTORE POP POP JUMP JUMPDEST PUSH1 0x0 PUSH1 0x60 DUP3 ADD SWAP1 POP PUSH3 0x371 PUSH1 0x0 DUP4 ADD DUP7 PUSH3 0x349 JUMP JUMPDEST PUSH3 0x380 PUSH1 0x20 DUP4 ADD DUP6 PUSH3 0x349 JUMP JUMPDEST PUSH3 0x38F PUSH1 0x40 DUP4 ADD DUP5 PUSH3 0x349 JUMP JUMPDEST SWAP5 SWAP4 POP POP POP POP JUMP JUMPDEST PUSH1 0x0 DUP2 SWAP1 POP SWAP2 SWAP1 POP JUMP JUMPDEST PUSH1 0x0 PUSH1 0x2 DUP3 DIV SWAP1 POP PUSH1 0x1 DUP3 AND DUP1 PUSH3 0x3BA JUMPI PUSH1 0x7F DUP3 AND SWAP2 POP JUMPDEST PUSH1 0x20 DUP3 LT DUP2 EQ ISZERO PUSH3 0x3D1 JUMPI PUSH3 0x3D0 PUSH3 0x3D7 JUMP JUMPDEST JUMPDEST POP SWAP2 SWAP1 POP JUMP JUMPDEST PUSH32 0x4E487B7100000000000000000000000000000000000000000000000000000000 PUSH1 0x0 MSTORE PUSH1 0x22 PUSH1 0x4 MSTORE PUSH1 0x24 PUSH1 0x0 REVERT JUMPDEST PUSH1 0x0 DUP1 REVERT JUMPDEST PUSH3 0x416 DUP2 PUSH3 0x397 JUMP JUMPDEST DUP2 EQ PUSH3 0x422 JUMPI PUSH1 0x0 DUP1 REVERT JUMPDEST POP JUMP JUMPDEST PUSH2 0x2ECC DUP1 PUSH3 0x435 PUSH1 0x0 CODECOPY PUSH1 0x0 RETURN INVALID PUSH1 0x80 PUSH1 0x40 MSTORE CALLVALUE DUP1 ISZERO PUSH2 0x10 JUMPI PUSH1 0x0 DUP1 REVERT JUMPDEST POP PUSH1 0x4 CALLDATASIZE LT PUSH2 0x116 JUMPI PUSH1 0x0 CALLDATALOAD PUSH1 0xE0 SHR DUP1 PUSH4 0x715018A6 GT PUSH2 0xA2 JUMPI DUP1 PUSH4 0xB88D4FDE GT PUSH2 0x71 JUMPI DUP1 PUSH4 0xB88D4FDE EQ PUSH2 0x2CB JUMPI DUP1 PUSH4 0xC87B56DD EQ PUSH2 0x2E7 JUMPI DUP1 PUSH4 0xE985E9C5 EQ PUSH2 0x317 JUMPI DUP1 PUSH4 0xF2FDE38B EQ PUSH2 0x347 JUMPI DUP1 PUSH4 0xFAA07EC1 EQ PUSH2 0x363 JUMPI PUSH2 0x116 JUMP JUMPDEST DUP1 PUSH4 0x715018A6 EQ PUSH2 0x269 JUMPI DUP1 PUSH4 0x8DA5CB5B EQ PUSH2 0x273 JUMPI DUP1 PUSH4 0x95D89B41 EQ PUSH2 0x291 JUMPI DUP1 PUSH4 0xA22CB465 EQ PUSH2 0x2AF JUMPI PUSH2 0x116 JUMP JUMPDEST DUP1 PUSH4 0x23B872DD GT PUSH2 0xE9 JUMPI DUP1 PUSH4 0x23B872DD EQ PUSH2 0x1B5 JUMPI DUP1 PUSH4 0x42842E0E EQ PUSH2 0x1D1 JUMPI DUP1 PUSH4 0x42966C68 EQ PUSH2 0x1ED JUMPI DUP1 PUSH4 0x6352211E EQ PUSH2 0x209 JUMPI DUP1 PUSH4 0x70A08231 EQ PUSH2 0x239 JUMPI PUSH2 0x116 JUMP JUMPDEST DUP1 PUSH4 0x1FFC9A7 EQ PUSH2 0x11B JUMPI DUP1 PUSH4 0x6FDDE03 EQ PUSH2 0x14B JUMPI DUP1 PUSH4 0x81812FC EQ PUSH2 0x169 JUMPI DUP1 PUSH4 0x95EA7B3 EQ PUSH2 0x199 JUMPI JUMPDEST PUSH1 0x0 DUP1 REVERT JUMPDEST PUSH2 0x135 PUSH1 0x4 DUP1 CALLDATASIZE SUB DUP2 ADD SWAP1 PUSH2 0x130 SWAP2 SWAP1 PUSH2 0x1EAA JUMP JUMPDEST PUSH2 0x37F JUMP JUMPDEST PUSH1 0x40 MLOAD PUSH2 0x142 SWAP2 SWAP1 PUSH2 0x2324 JUMP JUMPDEST PUSH1 0x40 MLOAD DUP1 SWAP2 SUB SWAP1 RETURN JUMPDEST PUSH2 0x153 PUSH2 0x461 JUMP JUMPDEST PUSH1 0x40 MLOAD PUSH2 0x160 SWAP2 SWAP1 PUSH2 0x233F JUMP JUMPDEST PUSH1 0x40 MLOAD DUP1 SWAP2 SUB SWAP1 RETURN JUMPDEST PUSH2 0x183 PUSH1 0x4 DUP1 CALLDATASIZE SUB DUP2 ADD SWAP1 PUSH2 0x17E SWAP2 SWAP1 PUSH2 0x1F04 JUMP JUMPDEST PUSH2 0x4F3 JUMP JUMPDEST PUSH1 0x40 MLOAD PUSH2 0x190 SWAP2 SWAP1 PUSH2 0x2278 JUMP JUMPDEST PUSH1 0x40 MLOAD DUP1 SWAP2 SUB SWAP1 RETURN JUMPDEST PUSH2 0x1B3 PUSH1 0x4 DUP1 CALLDATASIZE SUB DUP2 ADD SWAP1 PUSH2 0x1AE SWAP2 SWAP1 PUSH2 0x1E03 JUMP JUMPDEST PUSH2 0x578 JUMP JUMPDEST STOP JUMPDEST PUSH2 0x1CF PUSH1 0x4 DUP1 CALLDATASIZE SUB DUP2 ADD SWAP1 PUSH2 0x1CA SWAP2 SWAP1 PUSH2 0x1CED JUMP JUMPDEST PUSH2 0x690 JUMP JUMPDEST STOP JUMPDEST PUSH2 0x1EB PUSH1 0x4 DUP1 CALLDATASIZE SUB DUP2 ADD SWAP1 PUSH2 0x1E6 SWAP2 SWAP1 PUSH2 0x1CED JUMP JUMPDEST PUSH2 0x6F0 JUMP JUMPDEST STOP JUMPDEST PUSH2 0x207 PUSH1 0x4 DUP1 CALLDATASIZE SUB DUP2 ADD SWAP1 PUSH2 0x202 SWAP2 SWAP1 PUSH2 0x1F04 JUMP JUMPDEST PUSH2 0x710 JUMP JUMPDEST STOP JUMPDEST PUSH2 0x223 PUSH1 0x4 DUP1 CALLDATASIZE SUB DUP2 ADD SWAP1 PUSH2 0x21E SWAP2 SWAP1 PUSH2 0x1F04 JUMP JUMPDEST PUSH2 0x76C JUMP JUMPDEST PUSH1 0x40 MLOAD PUSH2 0x230 SWAP2 SWAP1 PUSH2 0x2278 JUMP JUMPDEST PUSH1 0x40 MLOAD DUP1 SWAP2 SUB SWAP1 RETURN JUMPDEST PUSH2 0x253 PUSH1 0x4 DUP1 CALLDATASIZE SUB DUP2 ADD SWAP1 PUSH2 0x24E SWAP2 SWAP1 PUSH2 0x1C80 JUMP JUMPDEST PUSH2 0x81E JUMP JUMPDEST PUSH1 0x40 MLOAD PUSH2 0x260 SWAP2 SWAP1 PUSH2 0x2581 JUMP JUMPDEST PUSH1 0x40 MLOAD DUP1 SWAP2 SUB SWAP1 RETURN JUMPDEST PUSH2 0x271 PUSH2 0x8D6 JUMP JUMPDEST STOP JUMPDEST PUSH2 0x27B PUSH2 0x95E JUMP JUMPDEST PUSH1 0x40 MLOAD PUSH2 0x288 SWAP2 SWAP1 PUSH2 0x2278 JUMP JUMPDEST PUSH1 0x40 MLOAD DUP1 SWAP2 SUB SWAP1 RETURN JUMPDEST PUSH2 0x299 PUSH2 0x988 JUMP JUMPDEST PUSH1 0x40 MLOAD PUSH2 0x2A6 SWAP2 SWAP1 PUSH2 0x233F JUMP JUMPDEST PUSH1 0x40 MLOAD DUP1 SWAP2 SUB SWAP1 RETURN JUMPDEST PUSH2 0x2C9 PUSH1 0x4 DUP1 CALLDATASIZE SUB DUP2 ADD SWAP1 PUSH2 0x2C4 SWAP2 SWAP1 PUSH2 0x1DC3 JUMP JUMPDEST PUSH2 0xA1A JUMP JUMPDEST STOP JUMPDEST PUSH2 0x2E5 PUSH1 0x4 DUP1 CALLDATASIZE SUB DUP2 ADD SWAP1 PUSH2 0x2E0 SWAP2 SWAP1 PUSH2 0x1D40 JUMP JUMPDEST PUSH2 0xA30 JUMP JUMPDEST STOP JUMPDEST PUSH2 0x301 PUSH1 0x4 DUP1 CALLDATASIZE SUB DUP2 ADD SWAP1 PUSH2 0x2FC SWAP2 SWAP1 PUSH2 0x1F04 JUMP JUMPDEST PUSH2 0xA92 JUMP JUMPDEST PUSH1 0x40 MLOAD PUSH2 0x30E SWAP2 SWAP1 PUSH2 0x233F JUMP JUMPDEST PUSH1 0x40 MLOAD DUP1 SWAP2 SUB SWAP1 RETURN JUMPDEST PUSH2 0x331 PUSH1 0x4 DUP1 CALLDATASIZE SUB DUP2 ADD SWAP1 PUSH2 0x32C SWAP2 SWAP1 PUSH2 0x1CAD JUMP JUMPDEST PUSH2 0xB39 JUMP JUMPDEST PUSH1 0x40 MLOAD PUSH2 0x33E SWAP2 SWAP1 PUSH2 0x2324 JUMP JUMPDEST PUSH1 0x40 MLOAD DUP1 SWAP2 SUB SWAP1 RETURN JUMPDEST PUSH2 0x361 PUSH1 0x4 DUP1 CALLDATASIZE SUB DUP2 ADD SWAP1 PUSH2 0x35C SWAP2 SWAP1 PUSH2 0x1C80 JUMP JUMPDEST PUSH2 0xBCD JUMP JUMPDEST STOP JUMPDEST PUSH2 0x37D PUSH1 0x4 DUP1 CALLDATASIZE SUB DUP2 ADD SWAP1 PUSH2 0x378 SWAP2 SWAP1 PUSH2 0x1E43 JUMP JUMPDEST PUSH2 0xCC5 JUMP JUMPDEST STOP JUMPDEST PUSH1 0x0 PUSH32 0x80AC58CD00000000000000000000000000000000000000000000000000000000 PUSH28 0xFFFFFFFFFFFFFFFFFFFFFFFFFFFFFFFFFFFFFFFFFFFFFFFFFFFFFFFF NOT AND DUP3 PUSH28 0xFFFFFFFFFFFFFFFFFFFFFFFFFFFFFFFFFFFFFFFFFFFFFFFFFFFFFFFF NOT AND EQ DUP1 PUSH2 0x44A JUMPI POP PUSH32 0x5B5E139F00000000000000000000000000000000000000000000000000000000 PUSH28 0xFFFFFFFFFFFFFFFFFFFFFFFFFFFFFFFFFFFFFFFFFFFFFFFFFFFFFFFF NOT AND DUP3 PUSH28 0xFFFFFFFFFFFFFFFFFFFFFFFFFFFFFFFFFFFFFFFFFFFFFFFFFFFFFFFF NOT AND EQ JUMPDEST DUP1 PUSH2 0x45A JUMPI POP PUSH2 0x459 DUP3 PUSH2 0xD90 JUMP JUMPDEST JUMPDEST SWAP1 POP SWAP2 SWAP1 POP JUMP JUMPDEST PUSH1 0x60 PUSH1 0x0 DUP1 SLOAD PUSH2 0x470 SWAP1 PUSH2 0x27A6 JUMP JUMPDEST DUP1 PUSH1 0x1F ADD PUSH1 0x20 DUP1 SWAP2 DIV MUL PUSH1 0x20 ADD PUSH1 0x40 MLOAD SWAP1 DUP2 ADD PUSH1 0x40 MSTORE DUP1 SWAP3 SWAP2 SWAP1 DUP2 DUP2 MSTORE PUSH1 0x20 ADD DUP3 DUP1 SLOAD PUSH2 0x49C SWAP1 PUSH2 0x27A6 JUMP JUMPDEST DUP1 ISZERO PUSH2 0x4E9 JUMPI DUP1 PUSH1 0x1F LT PUSH2 0x4BE JUMPI PUSH2 0x100 DUP1 DUP4 SLOAD DIV MUL DUP4 MSTORE SWAP2 PUSH1 0x20 ADD SWAP2 PUSH2 0x4E9 JUMP JUMPDEST DUP3 ADD SWAP2 SWAP1 PUSH1 0x0 MSTORE PUSH1 0x20 PUSH1 0x0 KECCAK256 SWAP1 JUMPDEST DUP2 SLOAD DUP2 MSTORE SWAP1 PUSH1 0x1 ADD SWAP1 PUSH1 0x20 ADD DUP1 DUP4 GT PUSH2 0x4CC JUMPI DUP3 SWAP1 SUB PUSH1 0x1F AND DUP3 ADD SWAP2 JUMPDEST POP POP POP POP POP SWAP1 POP SWAP1 JUMP JUMPDEST PUSH1 0x0 PUSH2 0x4FE DUP3 PUSH2 0xDFA JUMP JUMPDEST PUSH2 0x53D JUMPI PUSH1 0x40 MLOAD PUSH32 0x8C379A000000000000000000000000000000000000000000000000000000000 DUP2 MSTORE PUSH1 0x4 ADD PUSH2 0x534 SWAP1 PUSH2 0x24C1 JUMP JUMPDEST PUSH1 0x40 MLOAD DUP1 SWAP2 SUB SWAP1 REVERT JUMPDEST PUSH1 0x4 PUSH1 0x0 DUP4 DUP2 MSTORE PUSH1 0x20 ADD SWAP1 DUP2 MSTORE PUSH1 0x20 ADD PUSH1 0x0 KECCAK256 PUSH1 0x0 SWAP1 SLOAD SWAP1 PUSH2 0x100 EXP SWAP1 DIV PUSH20 0xFFFFFFFFFFFFFFFFFFFFFFFFFFFFFFFFFFFFFFFF AND SWAP1 POP SWAP2 SWAP1 POP JUMP JUMPDEST PUSH1 0x0 PUSH2 0x583 DUP3 PUSH2 0x76C JUMP JUMPDEST SWAP1 POP DUP1 PUSH20 0xFFFFFFFFFFFFFFFFFFFFFFFFFFFFFFFFFFFFFFFF AND DUP4 PUSH20 0xFFFFFFFFFFFFFFFFFFFFFFFFFFFFFFFFFFFFFFFF AND EQ ISZERO PUSH2 0x5F4 JUMPI PUSH1 0x40 MLOAD PUSH32 0x8C379A000000000000000000000000000000000000000000000000000000000 DUP2 MSTORE PUSH1 0x4 ADD PUSH2 0x5EB SWAP1 PUSH2 0x2521 JUMP JUMPDEST PUSH1 0x40 MLOAD DUP1 SWAP2 SUB SWAP1 REVERT JUMPDEST DUP1 PUSH20 0xFFFFFFFFFFFFFFFFFFFFFFFFFFFFFFFFFFFFFFFF AND PUSH2 0x613 PUSH2 0xE66 JUMP JUMPDEST PUSH20 0xFFFFFFFFFFFFFFFFFFFFFFFFFFFFFFFFFFFFFFFF AND EQ DUP1 PUSH2 0x642 JUMPI POP PUSH2 0x641 DUP2 PUSH2 0x63C PUSH2 0xE66 JUMP JUMPDEST PUSH2 0xB39 JUMP JUMPDEST JUMPDEST PUSH2 0x681 JUMPI PUSH1 0x40 MLOAD PUSH32 0x8C379A000000000000000000000000000000000000000000000000000000000 DUP2 MSTORE PUSH1 0x4 ADD PUSH2 0x678 SWAP1 PUSH2 0x2441 JUMP JUMPDEST PUSH1 0x40 MLOAD DUP1 SWAP2 SUB SWAP1 REVERT JUMPDEST PUSH2 0x68B DUP4 DUP4 PUSH2 0xE6E JUMP JUMPDEST POP POP POP JUMP JUMPDEST PUSH2 0x6A1 PUSH2 0x69B PUSH2 0xE66 JUMP JUMPDEST DUP3 PUSH2 0xF27 JUMP JUMPDEST PUSH2 0x6E0 JUMPI PUSH1 0x40 MLOAD PUSH32 0x8C379A000000000000000000000000000000000000000000000000000000000 DUP2 MSTORE PUSH1 0x4 ADD PUSH2 0x6D7 SWAP1 PUSH2 0x2541 JUMP JUMPDEST PUSH1 0x40 MLOAD DUP1 SWAP2 SUB SWAP1 REVERT JUMPDEST PUSH2 0x6EB DUP4 DUP4 DUP4 PUSH2 0x1005 JUMP JUMPDEST POP POP POP JUMP JUMPDEST PUSH2 0x70B DUP4 DUP4 DUP4 PUSH1 0x40 MLOAD DUP1 PUSH1 0x20 ADD PUSH1 0x40 MSTORE DUP1 PUSH1 0x0 DUP2 MSTORE POP PUSH2 0xA30 JUMP JUMPDEST POP POP POP JUMP JUMPDEST PUSH2 0x721 PUSH2 0x71B PUSH2 0xE66 JUMP JUMPDEST DUP3 PUSH2 0xF27 JUMP JUMPDEST PUSH2 0x760 JUMPI PUSH1 0x40 MLOAD PUSH32 0x8C379A000000000000000000000000000000000000000000000000000000000 DUP2 MSTORE PUSH1 0x4 ADD PUSH2 0x757 SWAP1 PUSH2 0x2561 JUMP JUMPDEST PUSH1 0x40 MLOAD DUP1 SWAP2 SUB SWAP1 REVERT JUMPDEST PUSH2 0x769 DUP2 PUSH2 0x126C JUMP JUMPDEST POP JUMP JUMPDEST PUSH1 0x0 DUP1 PUSH1 0x2 PUSH1 0x0 DUP5 DUP2 MSTORE PUSH1 0x20 ADD SWAP1 DUP2 MSTORE PUSH1 0x20 ADD PUSH1 0x0 KECCAK256 PUSH1 0x0 SWAP1 SLOAD SWAP1 PUSH2 0x100 EXP SWAP1 DIV PUSH20 0xFFFFFFFFFFFFFFFFFFFFFFFFFFFFFFFFFFFFFFFF AND SWAP1 POP PUSH1 0x0 PUSH20 0xFFFFFFFFFFFFFFFFFFFFFFFFFFFFFFFFFFFFFFFF AND DUP2 PUSH20 0xFFFFFFFFFFFFFFFFFFFFFFFFFFFFFFFFFFFFFFFF AND EQ ISZERO PUSH2 0x815 JUMPI PUSH1 0x40 MLOAD PUSH32 0x8C379A000000000000000000000000000000000000000000000000000000000 DUP2 MSTORE PUSH1 0x4 ADD PUSH2 0x80C SWAP1 PUSH2 0x2481 JUMP JUMPDEST PUSH1 0x40 MLOAD DUP1 SWAP2 SUB SWAP1 REVERT JUMPDEST DUP1 SWAP2 POP POP SWAP2 SWAP1 POP JUMP JUMPDEST PUSH1 0x0 DUP1 PUSH20 0xFFFFFFFFFFFFFFFFFFFFFFFFFFFFFFFFFFFFFFFF AND DUP3 PUSH20 0xFFFFFFFFFFFFFFFFFFFFFFFFFFFFFFFFFFFFFFFF AND EQ ISZERO PUSH2 0x88F JUMPI PUSH1 0x40 MLOAD PUSH32 0x8C379A000000000000000000000000000000000000000000000000000000000 DUP2 MSTORE PUSH1 0x4 ADD PUSH2 0x886 SWAP1 PUSH2 0x2461 JUMP JUMPDEST PUSH1 0x40 MLOAD DUP1 SWAP2 SUB SWAP1 REVERT JUMPDEST PUSH1 0x3 PUSH1 0x0 DUP4 PUSH20 0xFFFFFFFFFFFFFFFFFFFFFFFFFFFFFFFFFFFFFFFF AND PUSH20 0xFFFFFFFFFFFFFFFFFFFFFFFFFFFFFFFFFFFFFFFF AND DUP2 MSTORE PUSH1 0x20 ADD SWAP1 DUP2 MSTORE PUSH1 0x20 ADD PUSH1 0x0 KECCAK256 SLOAD SWAP1 POP SWAP2 SWAP1 POP JUMP JUMPDEST PUSH2 0x8DE PUSH2 0xE66 JUMP JUMPDEST PUSH20 0xFFFFFFFFFFFFFFFFFFFFFFFFFFFFFFFFFFFFFFFF AND PUSH2 0x8FC PUSH2 0x95E JUMP JUMPDEST PUSH20 0xFFFFFFFFFFFFFFFFFFFFFFFFFFFFFFFFFFFFFFFF AND EQ PUSH2 0x952 JUMPI PUSH1 0x40 MLOAD PUSH32 0x8C379A000000000000000000000000000000000000000000000000000000000 DUP2 MSTORE PUSH1 0x4 ADD PUSH2 0x949 SWAP1 PUSH2 0x24E1 JUMP JUMPDEST PUSH1 0x40 MLOAD DUP1 SWAP2 SUB SWAP1 REVERT JUMPDEST PUSH2 0x95C PUSH1 0x0 PUSH2 0x1389 JUMP JUMPDEST JUMP JUMPDEST PUSH1 0x0 PUSH1 0x6 PUSH1 0x0 SWAP1 SLOAD SWAP1 PUSH2 0x100 EXP SWAP1 DIV PUSH20 0xFFFFFFFFFFFFFFFFFFFFFFFFFFFFFFFFFFFFFFFF AND SWAP1 POP SWAP1 JUMP JUMPDEST PUSH1 0x60 PUSH1 0x1 DUP1 SLOAD PUSH2 0x997 SWAP1 PUSH2 0x27A6 JUMP JUMPDEST DUP1 PUSH1 0x1F ADD PUSH1 0x20 DUP1 SWAP2 DIV MUL PUSH1 0x20 ADD PUSH1 0x40 MLOAD SWAP1 DUP2 ADD PUSH1 0x40 MSTORE DUP1 SWAP3 SWAP2 SWAP1 DUP2 DUP2 MSTORE PUSH1 0x20 ADD DUP3 DUP1 SLOAD PUSH2 0x9C3 SWAP1 PUSH2 0x27A6 JUMP JUMPDEST DUP1 ISZERO PUSH2 0xA10 JUMPI DUP1 PUSH1 0x1F LT PUSH2 0x9E5 JUMPI PUSH2 0x100 DUP1 DUP4 SLOAD DIV MUL DUP4 MSTORE SWAP2 PUSH1 0x20 ADD SWAP2 PUSH2 0xA10 JUMP JUMPDEST DUP3 ADD SWAP2 SWAP1 PUSH1 0x0 MSTORE PUSH1 0x20 PUSH1 0x0 KECCAK256 SWAP1 JUMPDEST DUP2 SLOAD DUP2 MSTORE SWAP1 PUSH1 0x1 ADD SWAP1 PUSH1 0x20 ADD DUP1 DUP4 GT PUSH2 0x9F3 JUMPI DUP3 SWAP1 SUB PUSH1 0x1F AND DUP3 ADD SWAP2 JUMPDEST POP POP POP POP POP SWAP1 POP SWAP1 JUMP JUMPDEST PUSH2 0xA2C PUSH2 0xA25 PUSH2 0xE66 JUMP JUMPDEST DUP4 DUP4 PUSH2 0x144F JUMP JUMPDEST POP POP JUMP JUMPDEST PUSH2 0xA41 PUSH2 0xA3B PUSH2 0xE66 JUMP JUMPDEST DUP4 PUSH2 0xF27 JUMP JUMPDEST PUSH2 0xA80 JUMPI PUSH1 0x40 MLOAD PUSH32 0x8C379A000000000000000000000000000000000000000000000000000000000 DUP2 MSTORE PUSH1 0x4 ADD PUSH2 0xA77 SWAP1 PUSH2 0x2541 JUMP JUMPDEST PUSH1 0x40 MLOAD DUP1 SWAP2 SUB SWAP1 REVERT JUMPDEST PUSH2 0xA8C DUP5 DUP5 DUP5 DUP5 PUSH2 0x15BC JUMP JUMPDEST POP POP POP POP JUMP JUMPDEST PUSH1 0x60 PUSH2 0xA9D DUP3 PUSH2 0xDFA JUMP JUMPDEST PUSH2 0xADC JUMPI PUSH1 0x40 MLOAD PUSH32 0x8C379A000000000000000000000000000000000000000000000000000000000 DUP2 MSTORE PUSH1 0x4 ADD PUSH2 0xAD3 SWAP1 PUSH2 0x2501 JUMP JUMPDEST PUSH1 0x40 MLOAD DUP1 SWAP2 SUB SWAP1 REVERT JUMPDEST PUSH1 0x0 PUSH2 0xAE6 PUSH2 0x1618 JUMP JUMPDEST SWAP1 POP PUSH1 0x0 DUP2 MLOAD GT PUSH2 0xB06 JUMPI PUSH1 0x40 MLOAD DUP1 PUSH1 0x20 ADD PUSH1 0x40 MSTORE DUP1 PUSH1 0x0 DUP2 MSTORE POP PUSH2 0xB31 JUMP JUMPDEST DUP1 PUSH2 0xB10 DUP5 PUSH2 0x162F JUMP JUMPDEST PUSH1 0x40 MLOAD PUSH1 0x20 ADD PUSH2 0xB21 SWAP3 SWAP2 SWAP1 PUSH2 0x2254 JUMP JUMPDEST PUSH1 0x40 MLOAD PUSH1 0x20 DUP2 DUP4 SUB SUB DUP2 MSTORE SWAP1 PUSH1 0x40 MSTORE JUMPDEST SWAP2 POP POP SWAP2 SWAP1 POP JUMP JUMPDEST PUSH1 0x0 PUSH1 0x5 PUSH1 0x0 DUP5 PUSH20 0xFFFFFFFFFFFFFFFFFFFFFFFFFFFFFFFFFFFFFFFF AND PUSH20 0xFFFFFFFFFFFFFFFFFFFFFFFFFFFFFFFFFFFFFFFF AND DUP2 MSTORE PUSH1 0x20 ADD SWAP1 DUP2 MSTORE PUSH1 0x20 ADD PUSH1 0x0 KECCAK256 PUSH1 0x0 DUP4 PUSH20 0xFFFFFFFFFFFFFFFFFFFFFFFFFFFFFFFFFFFFFFFF AND PUSH20 0xFFFFFFFFFFFFFFFFFFFFFFFFFFFFFFFFFFFFFFFF AND DUP2 MSTORE PUSH1 0x20 ADD SWAP1 DUP2 MSTORE PUSH1 0x20 ADD PUSH1 0x0 KECCAK256 PUSH1 0x0 SWAP1 SLOAD SWAP1 PUSH2 0x100 EXP SWAP1 DIV PUSH1 0xFF AND SWAP1 POP SWAP3 SWAP2 POP POP JUMP JUMPDEST PUSH2 0xBD5 PUSH2 0xE66 JUMP JUMPDEST PUSH20 0xFFFFFFFFFFFFFFFFFFFFFFFFFFFFFFFFFFFFFFFF AND PUSH2 0xBF3 PUSH2 0x95E JUMP JUMPDEST PUSH20 0xFFFFFFFFFFFFFFFFFFFFFFFFFFFFFFFFFFFFFFFF AND EQ PUSH2 0xC49 JUMPI PUSH1 0x40 MLOAD PUSH32 0x8C379A000000000000000000000000000000000000000000000000000000000 DUP2 MSTORE PUSH1 0x4 ADD PUSH2 0xC40 SWAP1 PUSH2 0x24E1 JUMP JUMPDEST PUSH1 0x40 MLOAD DUP1 SWAP2 SUB SWAP1 REVERT JUMPDEST PUSH1 0x0 PUSH20 0xFFFFFFFFFFFFFFFFFFFFFFFFFFFFFFFFFFFFFFFF AND DUP2 PUSH20 0xFFFFFFFFFFFFFFFFFFFFFFFFFFFFFFFFFFFFFFFF AND EQ ISZERO PUSH2 0xCB9 JUMPI PUSH1 0x40 MLOAD PUSH32 0x8C379A000000000000000000000000000000000000000000000000000000000 DUP2 MSTORE PUSH1 0x4 ADD PUSH2 0xCB0 SWAP1 PUSH2 0x2381 JUMP JUMPDEST PUSH1 0x40 MLOAD DUP1 SWAP2 SUB SWAP1 REVERT JUMPDEST PUSH2 0xCC2 DUP2 PUSH2 0x1389 JUMP JUMPDEST POP JUMP JUMPDEST PUSH2 0xCCD PUSH2 0xE66 JUMP JUMPDEST PUSH20 0xFFFFFFFFFFFFFFFFFFFFFFFFFFFFFFFFFFFFFFFF AND PUSH2 0xCEB PUSH2 0x95E JUMP JUMPDEST PUSH20 0xFFFFFFFFFFFFFFFFFFFFFFFFFFFFFFFFFFFFFFFF AND EQ PUSH2 0xD41 JUMPI PUSH1 0x40 MLOAD PUSH32 0x8C379A000000000000000000000000000000000000000000000000000000000 DUP2 MSTORE PUSH1 0x4 ADD PUSH2 0xD38 SWAP1 PUSH2 0x24E1 JUMP JUMPDEST PUSH1 0x40 MLOAD DUP1 SWAP2 SUB SWAP1 REVERT JUMPDEST PUSH2 0xD4D DUP5 PUSH1 0x9 SLOAD PUSH2 0x1790 JUMP JUMPDEST PUSH32 0xEDB98D9EEBF33E9EAC68168E88C7A6793F0FDEA0B80C974AE4CDEFE3BFE7667B DUP5 DUP5 DUP5 DUP5 PUSH1 0x40 MLOAD PUSH2 0xD82 SWAP5 SWAP4 SWAP3 SWAP2 SWAP1 PUSH2 0x22DF JUMP JUMPDEST PUSH1 0x40 MLOAD DUP1 SWAP2 SUB SWAP1 LOG1 POP POP POP POP JUMP JUMPDEST PUSH1 0x0 PUSH32 0x1FFC9A700000000000000000000000000000000000000000000000000000000 PUSH28 0xFFFFFFFFFFFFFFFFFFFFFFFFFFFFFFFFFFFFFFFFFFFFFFFFFFFFFFFF NOT AND DUP3 PUSH28 0xFFFFFFFFFFFFFFFFFFFFFFFFFFFFFFFFFFFFFFFFFFFFFFFFFFFFFFFF NOT AND EQ SWAP1 POP SWAP2 SWAP1 POP JUMP JUMPDEST PUSH1 0x0 DUP1 PUSH20 0xFFFFFFFFFFFFFFFFFFFFFFFFFFFFFFFFFFFFFFFF AND PUSH1 0x2 PUSH1 0x0 DUP5 DUP2 MSTORE PUSH1 0x20 ADD SWAP1 DUP2 MSTORE PUSH1 0x20 ADD PUSH1 0x0 KECCAK256 PUSH1 0x0 SWAP1 SLOAD SWAP1 PUSH2 0x100 EXP SWAP1 DIV PUSH20 0xFFFFFFFFFFFFFFFFFFFFFFFFFFFFFFFFFFFFFFFF AND PUSH20 0xFFFFFFFFFFFFFFFFFFFFFFFFFFFFFFFFFFFFFFFF AND EQ ISZERO SWAP1 POP SWAP2 SWAP1 POP JUMP JUMPDEST PUSH1 0x0 CALLER SWAP1 POP SWAP1 JUMP JUMPDEST DUP2 PUSH1 0x4 PUSH1 0x0 DUP4 DUP2 MSTORE PUSH1 0x20 ADD SWAP1 DUP2 MSTORE PUSH1 0x20 ADD PUSH1 0x0 KECCAK256 PUSH1 0x0 PUSH2 0x100 EXP DUP2 SLOAD DUP2 PUSH20 0xFFFFFFFFFFFFFFFFFFFFFFFFFFFFFFFFFFFFFFFF MUL NOT AND SWAP1 DUP4 PUSH20 0xFFFFFFFFFFFFFFFFFFFFFFFFFFFFFFFFFFFFFFFF AND MUL OR SWAP1 SSTORE POP DUP1 DUP3 PUSH20 0xFFFFFFFFFFFFFFFFFFFFFFFFFFFFFFFFFFFFFFFF AND PUSH2 0xEE1 DUP4 PUSH2 0x76C JUMP JUMPDEST PUSH20 0xFFFFFFFFFFFFFFFFFFFFFFFFFFFFFFFFFFFFFFFF AND PUSH32 0x8C5BE1E5EBEC7D5BD14F71427D1E84F3DD0314C0F7B2291E5B200AC8C7C3B925 PUSH1 0x40 MLOAD PUSH1 0x40 MLOAD DUP1 SWAP2 SUB SWAP1 LOG4 POP POP JUMP JUMPDEST PUSH1 0x0 PUSH2 0xF32 DUP3 PUSH2 0xDFA JUMP JUMPDEST PUSH2 0xF71 JUMPI PUSH1 0x40 MLOAD PUSH32 0x8C379A000000000000000000000000000000000000000000000000000000000 DUP2 MSTORE PUSH1 0x4 ADD PUSH2 0xF68 SWAP1 PUSH2 0x2421 JUMP JUMPDEST PUSH1 0x40 MLOAD DUP1 SWAP2 SUB SWAP1 REVERT JUMPDEST PUSH1 0x0 PUSH2 0xF7C DUP4 PUSH2 0x76C JUMP JUMPDEST SWAP1 POP DUP1 PUSH20 0xFFFFFFFFFFFFFFFFFFFFFFFFFFFFFFFFFFFFFFFF AND DUP5 PUSH20 0xFFFFFFFFFFFFFFFFFFFFFFFFFFFFFFFFFFFFFFFF AND EQ DUP1 PUSH2 0xFEB JUMPI POP DUP4 PUSH20 0xFFFFFFFFFFFFFFFFFFFFFFFFFFFFFFFFFFFFFFFF AND PUSH2 0xFD3 DUP5 PUSH2 0x4F3 JUMP JUMPDEST PUSH20 0xFFFFFFFFFFFFFFFFFFFFFFFFFFFFFFFFFFFFFFFF AND EQ JUMPDEST DUP1 PUSH2 0xFFC JUMPI POP PUSH2 0xFFB DUP2 DUP6 PUSH2 0xB39 JUMP JUMPDEST JUMPDEST SWAP2 POP POP SWAP3 SWAP2 POP POP JUMP JUMPDEST DUP3 PUSH20 0xFFFFFFFFFFFFFFFFFFFFFFFFFFFFFFFFFFFFFFFF AND PUSH2 0x1025 DUP3 PUSH2 0x76C JUMP JUMPDEST PUSH20 0xFFFFFFFFFFFFFFFFFFFFFFFFFFFFFFFFFFFFFFFF AND EQ PUSH2 0x107B JUMPI PUSH1 0x40 MLOAD PUSH32 0x8C379A000000000000000000000000000000000000000000000000000000000 DUP2 MSTORE PUSH1 0x4 ADD PUSH2 0x1072 SWAP1 PUSH2 0x23A1 JUMP JUMPDEST PUSH1 0x40 MLOAD DUP1 SWAP2 SUB SWAP1 REVERT JUMPDEST PUSH1 0x0 PUSH20 0xFFFFFFFFFFFFFFFFFFFFFFFFFFFFFFFFFFFFFFFF AND DUP3 PUSH20 0xFFFFFFFFFFFFFFFFFFFFFFFFFFFFFFFFFFFFFFFF AND EQ ISZERO PUSH2 0x10EB JUMPI PUSH1 0x40 MLOAD PUSH32 0x8C379A000000000000000000000000000000000000000000000000000000000 DUP2 MSTORE PUSH1 0x4 ADD PUSH2 0x10E2 SWAP1 PUSH2 0x23E1 JUMP JUMPDEST PUSH1 0x40 MLOAD DUP1 SWAP2 SUB SWAP1 REVERT JUMPDEST PUSH2 0x10F6 DUP4 DUP4 DUP4 PUSH2 0x17AE JUMP JUMPDEST PUSH2 0x1101 PUSH1 0x0 DUP3 PUSH2 0xE6E JUMP JUMPDEST PUSH1 0x1 PUSH1 0x3 PUSH1 0x0 DUP6 PUSH20 0xFFFFFFFFFFFFFFFFFFFFFFFFFFFFFFFFFFFFFFFF AND PUSH20 0xFFFFFFFFFFFFFFFFFFFFFFFFFFFFFFFFFFFFFFFF AND DUP2 MSTORE PUSH1 0x20 ADD SWAP1 DUP2 MSTORE PUSH1 0x20 ADD PUSH1 0x0 KECCAK256 PUSH1 0x0 DUP3 DUP3 SLOAD PUSH2 0x1151 SWAP2 SWAP1 PUSH2 0x26BC JUMP JUMPDEST SWAP3 POP POP DUP2 SWAP1 SSTORE POP PUSH1 0x1 PUSH1 0x3 PUSH1 0x0 DUP5 PUSH20 0xFFFFFFFFFFFFFFFFFFFFFFFFFFFFFFFFFFFFFFFF AND PUSH20 0xFFFFFFFFFFFFFFFFFFFFFFFFFFFFFFFFFFFFFFFF AND DUP2 MSTORE PUSH1 0x20 ADD SWAP1 DUP2 MSTORE PUSH1 0x20 ADD PUSH1 0x0 KECCAK256 PUSH1 0x0 DUP3 DUP3 SLOAD PUSH2 0x11A8 SWAP2 SWAP1 PUSH2 0x2635 JUMP JUMPDEST SWAP3 POP POP DUP2 SWAP1 SSTORE POP DUP2 PUSH1 0x2 PUSH1 0x0 DUP4 DUP2 MSTORE PUSH1 0x20 ADD SWAP1 DUP2 MSTORE PUSH1 0x20 ADD PUSH1 0x0 KECCAK256 PUSH1 0x0 PUSH2 0x100 EXP DUP2 SLOAD DUP2 PUSH20 0xFFFFFFFFFFFFFFFFFFFFFFFFFFFFFFFFFFFFFFFF MUL NOT AND SWAP1 DUP4 PUSH20 0xFFFFFFFFFFFFFFFFFFFFFFFFFFFFFFFFFFFFFFFF AND MUL OR SWAP1 SSTORE POP DUP1 DUP3 PUSH20 0xFFFFFFFFFFFFFFFFFFFFFFFFFFFFFFFFFFFFFFFF AND DUP5 PUSH20 0xFFFFFFFFFFFFFFFFFFFFFFFFFFFFFFFFFFFFFFFF AND PUSH32 0xDDF252AD1BE2C89B69C2B068FC378DAA952BA7F163C4A11628F55A4DF523B3EF PUSH1 0x40 MLOAD PUSH1 0x40 MLOAD DUP1 SWAP2 SUB SWAP1 LOG4 PUSH2 0x1267 DUP4 DUP4 DUP4 PUSH2 0x17B3 JUMP JUMPDEST POP POP POP JUMP JUMPDEST PUSH1 0x0 PUSH2 0x1277 DUP3 PUSH2 0x76C JUMP JUMPDEST SWAP1 POP PUSH2 0x1285 DUP2 PUSH1 0x0 DUP5 PUSH2 0x17AE JUMP JUMPDEST PUSH2 0x1290 PUSH1 0x0 DUP4 PUSH2 0xE6E JUMP JUMPDEST PUSH1 0x1 PUSH1 0x3 PUSH1 0x0 DUP4 PUSH20 0xFFFFFFFFFFFFFFFFFFFFFFFFFFFFFFFFFFFFFFFF AND PUSH20 0xFFFFFFFFFFFFFFFFFFFFFFFFFFFFFFFFFFFFFFFF AND DUP2 MSTORE PUSH1 0x20 ADD SWAP1 DUP2 MSTORE PUSH1 0x20 ADD PUSH1 0x0 KECCAK256 PUSH1 0x0 DUP3 DUP3 SLOAD PUSH2 0x12E0 SWAP2 SWAP1 PUSH2 0x26BC JUMP JUMPDEST SWAP3 POP POP DUP2 SWAP1 SSTORE POP PUSH1 0x2 PUSH1 0x0 DUP4 DUP2 MSTORE PUSH1 0x20 ADD SWAP1 DUP2 MSTORE PUSH1 0x20 ADD PUSH1 0x0 KECCAK256 PUSH1 0x0 PUSH2 0x100 EXP DUP2 SLOAD SWAP1 PUSH20 0xFFFFFFFFFFFFFFFFFFFFFFFFFFFFFFFFFFFFFFFF MUL NOT AND SWAP1 SSTORE DUP2 PUSH1 0x0 PUSH20 0xFFFFFFFFFFFFFFFFFFFFFFFFFFFFFFFFFFFFFFFF AND DUP3 PUSH20 0xFFFFFFFFFFFFFFFFFFFFFFFFFFFFFFFFFFFFFFFF AND PUSH32 0xDDF252AD1BE2C89B69C2B068FC378DAA952BA7F163C4A11628F55A4DF523B3EF PUSH1 0x40 MLOAD PUSH1 0x40 MLOAD DUP1 SWAP2 SUB SWAP1 LOG4 PUSH2 0x1385 DUP2 PUSH1 0x0 DUP5 PUSH2 0x17B3 JUMP JUMPDEST POP POP JUMP JUMPDEST PUSH1 0x0 PUSH1 0x6 PUSH1 0x0 SWAP1 SLOAD SWAP1 PUSH2 0x100 EXP SWAP1 DIV PUSH20 0xFFFFFFFFFFFFFFFFFFFFFFFFFFFFFFFFFFFFFFFF AND SWAP1 POP DUP2 PUSH1 0x6 PUSH1 0x0 PUSH2 0x100 EXP DUP2 SLOAD DUP2 PUSH20 0xFFFFFFFFFFFFFFFFFFFFFFFFFFFFFFFFFFFFFFFF MUL NOT AND SWAP1 DUP4 PUSH20 0xFFFFFFFFFFFFFFFFFFFFFFFFFFFFFFFFFFFFFFFF AND MUL OR SWAP1 SSTORE POP DUP2 PUSH20 0xFFFFFFFFFFFFFFFFFFFFFFFFFFFFFFFFFFFFFFFF AND DUP2 PUSH20 0xFFFFFFFFFFFFFFFFFFFFFFFFFFFFFFFFFFFFFFFF AND PUSH32 0x8BE0079C531659141344CD1FD0A4F28419497F9722A3DAAFE3B4186F6B6457E0 PUSH1 0x40 MLOAD PUSH1 0x40 MLOAD DUP1 SWAP2 SUB SWAP1 LOG3 POP POP JUMP JUMPDEST DUP2 PUSH20 0xFFFFFFFFFFFFFFFFFFFFFFFFFFFFFFFFFFFFFFFF AND DUP4 PUSH20 0xFFFFFFFFFFFFFFFFFFFFFFFFFFFFFFFFFFFFFFFF AND EQ ISZERO PUSH2 0x14BE JUMPI PUSH1 0x40 MLOAD PUSH32 0x8C379A000000000000000000000000000000000000000000000000000000000 DUP2 MSTORE PUSH1 0x4 ADD PUSH2 0x14B5 SWAP1 PUSH2 0x2401 JUMP JUMPDEST PUSH1 0x40 MLOAD DUP1 SWAP2 SUB SWAP1 REVERT JUMPDEST DUP1 PUSH1 0x5 PUSH1 0x0 DUP6 PUSH20 0xFFFFFFFFFFFFFFFFFFFFFFFFFFFFFFFFFFFFFFFF AND PUSH20 0xFFFFFFFFFFFFFFFFFFFFFFFFFFFFFFFFFFFFFFFF AND DUP2 MSTORE PUSH1 0x20 ADD SWAP1 DUP2 MSTORE PUSH1 0x20 ADD PUSH1 0x0 KECCAK256 PUSH1 0x0 DUP5 PUSH20 0xFFFFFFFFFFFFFFFFFFFFFFFFFFFFFFFFFFFFFFFF AND PUSH20 0xFFFFFFFFFFFFFFFFFFFFFFFFFFFFFFFFFFFFFFFF AND DUP2 MSTORE PUSH1 0x20 ADD SWAP1 DUP2 MSTORE PUSH1 0x20 ADD PUSH1 0x0 KECCAK256 PUSH1 0x0 PUSH2 0x100 EXP DUP2 SLOAD DUP2 PUSH1 0xFF MUL NOT AND SWAP1 DUP4 ISZERO ISZERO MUL OR SWAP1 SSTORE POP DUP2 PUSH20 0xFFFFFFFFFFFFFFFFFFFFFFFFFFFFFFFFFFFFFFFF AND DUP4 PUSH20 0xFFFFFFFFFFFFFFFFFFFFFFFFFFFFFFFFFFFFFFFF AND PUSH32 0x17307EAB39AB6107E8899845AD3D59BD9653F200F220920489CA2B5937696C31 DUP4 PUSH1 0x40 MLOAD PUSH2 0x15AF SWAP2 SWAP1 PUSH2 0x2324 JUMP JUMPDEST PUSH1 0x40 MLOAD DUP1 SWAP2 SUB SWAP1 LOG3 POP POP POP JUMP JUMPDEST PUSH2 0x15C7 DUP5 DUP5 DUP5 PUSH2 0x1005 JUMP JUMPDEST PUSH2 0x15D3 DUP5 DUP5 DUP5 DUP5 PUSH2 0x17B8 JUMP JUMPDEST PUSH2 0x1612 JUMPI PUSH1 0x40 MLOAD PUSH32 0x8C379A000000000000000000000000000000000000000000000000000000000 DUP2 MSTORE PUSH1 0x4 ADD PUSH2 0x1609 SWAP1 PUSH2 0x2361 JUMP JUMPDEST PUSH1 0x40 MLOAD DUP1 SWAP2 SUB SWAP1 REVERT JUMPDEST POP POP POP POP JUMP JUMPDEST PUSH1 0x60 PUSH1 0x40 MLOAD DUP1 PUSH1 0x20 ADD PUSH1 0x40 MSTORE DUP1 PUSH1 0x0 DUP2 MSTORE POP SWAP1 POP SWAP1 JUMP JUMPDEST PUSH1 0x60 PUSH1 0x0 DUP3 EQ ISZERO PUSH2 0x1677 JUMPI PUSH1 0x40 MLOAD DUP1 PUSH1 0x40 ADD PUSH1 0x40 MSTORE DUP1 PUSH1 0x1 DUP2 MSTORE PUSH1 0x20 ADD PUSH32 0x3000000000000000000000000000000000000000000000000000000000000000 DUP2 MSTORE POP SWAP1 POP PUSH2 0x178B JUMP JUMPDEST PUSH1 0x0 DUP3 SWAP1 POP PUSH1 0x0 JUMPDEST PUSH1 0x0 DUP3 EQ PUSH2 0x16A9 JUMPI DUP1 DUP1 PUSH2 0x1692 SWAP1 PUSH2 0x2809 JUMP JUMPDEST SWAP2 POP POP PUSH1 0xA DUP3 PUSH2 0x16A2 SWAP2 SWAP1 PUSH2 0x268B JUMP JUMPDEST SWAP2 POP PUSH2 0x167F JUMP JUMPDEST PUSH1 0x0 DUP2 PUSH8 0xFFFFFFFFFFFFFFFF DUP2 GT ISZERO PUSH2 0x16C5 JUMPI PUSH2 0x16C4 PUSH2 0x293F JUMP JUMPDEST JUMPDEST PUSH1 0x40 MLOAD SWAP1 DUP1 DUP3 MSTORE DUP1 PUSH1 0x1F ADD PUSH1 0x1F NOT AND PUSH1 0x20 ADD DUP3 ADD PUSH1 0x40 MSTORE DUP1 ISZERO PUSH2 0x16F7 JUMPI DUP2 PUSH1 0x20 ADD PUSH1 0x1 DUP3 MUL DUP1 CALLDATASIZE DUP4 CALLDATACOPY DUP1 DUP3 ADD SWAP2 POP POP SWAP1 POP JUMPDEST POP SWAP1 POP JUMPDEST PUSH1 0x0 DUP6 EQ PUSH2 0x1784 JUMPI PUSH1 0x1 DUP3 PUSH2 0x1710 SWAP2 SWAP1 PUSH2 0x26BC JUMP JUMPDEST SWAP2 POP PUSH1 0xA DUP6 PUSH2 0x171F SWAP2 SWAP1 PUSH2 0x2852 JUMP JUMPDEST PUSH1 0x30 PUSH2 0x172B SWAP2 SWAP1 PUSH2 0x2635 JUMP JUMPDEST PUSH1 0xF8 SHL DUP2 DUP4 DUP2 MLOAD DUP2 LT PUSH2 0x1741 JUMPI PUSH2 0x1740 PUSH2 0x2910 JUMP JUMPDEST JUMPDEST PUSH1 0x20 ADD ADD SWAP1 PUSH31 0xFFFFFFFFFFFFFFFFFFFFFFFFFFFFFFFFFFFFFFFFFFFFFFFFFFFFFFFFFFFFFF NOT AND SWAP1 DUP2 PUSH1 0x0 BYTE SWAP1 MSTORE8 POP PUSH1 0xA DUP6 PUSH2 0x177D SWAP2 SWAP1 PUSH2 0x268B JUMP JUMPDEST SWAP5 POP PUSH2 0x16FB JUMP JUMPDEST DUP1 SWAP4 POP POP POP POP JUMPDEST SWAP2 SWAP1 POP JUMP JUMPDEST PUSH2 0x17AA DUP3 DUP3 PUSH1 0x40 MLOAD DUP1 PUSH1 0x20 ADD PUSH1 0x40 MSTORE DUP1 PUSH1 0x0 DUP2 MSTORE POP PUSH2 0x194F JUMP JUMPDEST POP POP JUMP JUMPDEST POP POP POP JUMP JUMPDEST POP POP POP JUMP JUMPDEST PUSH1 0x0 PUSH2 0x17D9 DUP5 PUSH20 0xFFFFFFFFFFFFFFFFFFFFFFFFFFFFFFFFFFFFFFFF AND PUSH2 0x19AA JUMP JUMPDEST ISZERO PUSH2 0x1942 JUMPI DUP4 PUSH20 0xFFFFFFFFFFFFFFFFFFFFFFFFFFFFFFFFFFFFFFFF AND PUSH4 0x150B7A02 PUSH2 0x1802 PUSH2 0xE66 JUMP JUMPDEST DUP8 DUP7 DUP7 PUSH1 0x40 MLOAD DUP6 PUSH4 0xFFFFFFFF AND PUSH1 0xE0 SHL DUP2 MSTORE PUSH1 0x4 ADD PUSH2 0x1824 SWAP5 SWAP4 SWAP3 SWAP2 SWAP1 PUSH2 0x2293 JUMP JUMPDEST PUSH1 0x20 PUSH1 0x40 MLOAD DUP1 DUP4 SUB DUP2 PUSH1 0x0 DUP8 DUP1 EXTCODESIZE ISZERO DUP1 ISZERO PUSH2 0x183E JUMPI PUSH1 0x0 DUP1 REVERT JUMPDEST POP GAS CALL SWAP3 POP POP POP DUP1 ISZERO PUSH2 0x186F JUMPI POP PUSH1 0x40 MLOAD RETURNDATASIZE PUSH1 0x1F NOT PUSH1 0x1F DUP3 ADD AND DUP3 ADD DUP1 PUSH1 0x40 MSTORE POP DUP2 ADD SWAP1 PUSH2 0x186C SWAP2 SWAP1 PUSH2 0x1ED7 JUMP JUMPDEST PUSH1 0x1 JUMPDEST PUSH2 0x18F2 JUMPI RETURNDATASIZE DUP1 PUSH1 0x0 DUP2 EQ PUSH2 0x189F JUMPI PUSH1 0x40 MLOAD SWAP2 POP PUSH1 0x1F NOT PUSH1 0x3F RETURNDATASIZE ADD AND DUP3 ADD PUSH1 0x40 MSTORE RETURNDATASIZE DUP3 MSTORE RETURNDATASIZE PUSH1 0x0 PUSH1 0x20 DUP5 ADD RETURNDATACOPY PUSH2 0x18A4 JUMP JUMPDEST PUSH1 0x60 SWAP2 POP JUMPDEST POP PUSH1 0x0 DUP2 MLOAD EQ ISZERO PUSH2 0x18EA JUMPI PUSH1 0x40 MLOAD PUSH32 0x8C379A000000000000000000000000000000000000000000000000000000000 DUP2 MSTORE PUSH1 0x4 ADD PUSH2 0x18E1 SWAP1 PUSH2 0x2361 JUMP JUMPDEST PUSH1 0x40 MLOAD DUP1 SWAP2 SUB SWAP1 REVERT JUMPDEST DUP1 MLOAD DUP2 PUSH1 0x20 ADD REVERT JUMPDEST PUSH4 0x150B7A02 PUSH1 0xE0 SHL PUSH28 0xFFFFFFFFFFFFFFFFFFFFFFFFFFFFFFFFFFFFFFFFFFFFFFFFFFFFFFFF NOT AND DUP2 PUSH28 0xFFFFFFFFFFFFFFFFFFFFFFFFFFFFFFFFFFFFFFFFFFFFFFFFFFFFFFFF NOT AND EQ SWAP2 POP POP PUSH2 0x1947 JUMP JUMPDEST PUSH1 0x1 SWAP1 POP JUMPDEST SWAP5 SWAP4 POP POP POP POP JUMP JUMPDEST PUSH2 0x1959 DUP4 DUP4 PUSH2 0x19CD JUMP JUMPDEST PUSH2 0x1966 PUSH1 0x0 DUP5 DUP5 DUP5 PUSH2 0x17B8 JUMP JUMPDEST PUSH2 0x19A5 JUMPI PUSH1 0x40 MLOAD PUSH32 0x8C379A000000000000000000000000000000000000000000000000000000000 DUP2 MSTORE PUSH1 0x4 ADD PUSH2 0x199C SWAP1 PUSH2 0x2361 JUMP JUMPDEST PUSH1 0x40 MLOAD DUP1 SWAP2 SUB SWAP1 REVERT JUMPDEST POP POP POP JUMP JUMPDEST PUSH1 0x0 DUP1 DUP3 PUSH20 0xFFFFFFFFFFFFFFFFFFFFFFFFFFFFFFFFFFFFFFFF AND EXTCODESIZE GT SWAP1 POP SWAP2 SWAP1 POP JUMP JUMPDEST PUSH1 0x0 PUSH20 0xFFFFFFFFFFFFFFFFFFFFFFFFFFFFFFFFFFFFFFFF AND DUP3 PUSH20 0xFFFFFFFFFFFFFFFFFFFFFFFFFFFFFFFFFFFFFFFF AND EQ ISZERO PUSH2 0x1A3D JUMPI PUSH1 0x40 MLOAD PUSH32 0x8C379A000000000000000000000000000000000000000000000000000000000 DUP2 MSTORE PUSH1 0x4 ADD PUSH2 0x1A34 SWAP1 PUSH2 0x24A1 JUMP JUMPDEST PUSH1 0x40 MLOAD DUP1 SWAP2 SUB SWAP1 REVERT JUMPDEST PUSH2 0x1A46 DUP2 PUSH2 0xDFA JUMP JUMPDEST ISZERO PUSH2 0x1A86 JUMPI PUSH1 0x40 MLOAD PUSH32 0x8C379A000000000000000000000000000000000000000000000000000000000 DUP2 MSTORE PUSH1 0x4 ADD PUSH2 0x1A7D SWAP1 PUSH2 0x23C1 JUMP JUMPDEST PUSH1 0x40 MLOAD DUP1 SWAP2 SUB SWAP1 REVERT JUMPDEST PUSH2 0x1A92 PUSH1 0x0 DUP4 DUP4 PUSH2 0x17AE JUMP JUMPDEST PUSH1 0x1 PUSH1 0x3 PUSH1 0x0 DUP5 PUSH20 0xFFFFFFFFFFFFFFFFFFFFFFFFFFFFFFFFFFFFFFFF AND PUSH20 0xFFFFFFFFFFFFFFFFFFFFFFFFFFFFFFFFFFFFFFFF AND DUP2 MSTORE PUSH1 0x20 ADD SWAP1 DUP2 MSTORE PUSH1 0x20 ADD PUSH1 0x0 KECCAK256 PUSH1 0x0 DUP3 DUP3 SLOAD PUSH2 0x1AE2 SWAP2 SWAP1 PUSH2 0x2635 JUMP JUMPDEST SWAP3 POP POP DUP2 SWAP1 SSTORE POP DUP2 PUSH1 0x2 PUSH1 0x0 DUP4 DUP2 MSTORE PUSH1 0x20 ADD SWAP1 DUP2 MSTORE PUSH1 0x20 ADD PUSH1 0x0 KECCAK256 PUSH1 0x0 PUSH2 0x100 EXP DUP2 SLOAD DUP2 PUSH20 0xFFFFFFFFFFFFFFFFFFFFFFFFFFFFFFFFFFFFFFFF MUL NOT AND SWAP1 DUP4 PUSH20 0xFFFFFFFFFFFFFFFFFFFFFFFFFFFFFFFFFFFFFFFF AND MUL OR SWAP1 SSTORE POP DUP1 DUP3 PUSH20 0xFFFFFFFFFFFFFFFFFFFFFFFFFFFFFFFFFFFFFFFF AND PUSH1 0x0 PUSH20 0xFFFFFFFFFFFFFFFFFFFFFFFFFFFFFFFFFFFFFFFF AND PUSH32 0xDDF252AD1BE2C89B69C2B068FC378DAA952BA7F163C4A11628F55A4DF523B3EF PUSH1 0x40 MLOAD PUSH1 0x40 MLOAD DUP1 SWAP2 SUB SWAP1 LOG4 PUSH2 0x1BA3 PUSH1 0x0 DUP4 DUP4 PUSH2 0x17B3 JUMP JUMPDEST POP POP JUMP JUMPDEST PUSH1 0x0 PUSH2 0x1BBA PUSH2 0x1BB5 DUP5 PUSH2 0x25C1 JUMP JUMPDEST PUSH2 0x259C JUMP JUMPDEST SWAP1 POP DUP3 DUP2 MSTORE PUSH1 0x20 DUP2 ADD DUP5 DUP5 DUP5 ADD GT ISZERO PUSH2 0x1BD6 JUMPI PUSH2 0x1BD5 PUSH2 0x2973 JUMP JUMPDEST JUMPDEST PUSH2 0x1BE1 DUP5 DUP3 DUP6 PUSH2 0x2764 JUMP JUMPDEST POP SWAP4 SWAP3 POP POP POP JUMP JUMPDEST PUSH1 0x0 DUP2 CALLDATALOAD SWAP1 POP PUSH2 0x1BF8 DUP2 PUSH2 0x2E3A JUMP JUMPDEST SWAP3 SWAP2 POP POP JUMP JUMPDEST PUSH1 0x0 DUP2 CALLDATALOAD SWAP1 POP PUSH2 0x1C0D DUP2 PUSH2 0x2E51 JUMP JUMPDEST SWAP3 SWAP2 POP POP JUMP JUMPDEST PUSH1 0x0 DUP2 CALLDATALOAD SWAP1 POP PUSH2 0x1C22 DUP2 PUSH2 0x2E68 JUMP JUMPDEST SWAP3 SWAP2 POP POP JUMP JUMPDEST PUSH1 0x0 DUP2 MLOAD SWAP1 POP PUSH2 0x1C37 DUP2 PUSH2 0x2E68 JUMP JUMPDEST SWAP3 SWAP2 POP POP JUMP JUMPDEST PUSH1 0x0 DUP3 PUSH1 0x1F DUP4 ADD SLT PUSH2 0x1C52 JUMPI PUSH2 0x1C51 PUSH2 0x296E JUMP JUMPDEST JUMPDEST DUP2 CALLDATALOAD PUSH2 0x1C62 DUP5 DUP3 PUSH1 0x20 DUP7 ADD PUSH2 0x1BA7 JUMP JUMPDEST SWAP2 POP POP SWAP3 SWAP2 POP POP JUMP JUMPDEST PUSH1 0x0 DUP2 CALLDATALOAD SWAP1 POP PUSH2 0x1C7A DUP2 PUSH2 0x2E7F JUMP JUMPDEST SWAP3 SWAP2 POP POP JUMP JUMPDEST PUSH1 0x0 PUSH1 0x20 DUP3 DUP5 SUB SLT ISZERO PUSH2 0x1C96 JUMPI PUSH2 0x1C95 PUSH2 0x297D JUMP JUMPDEST JUMPDEST PUSH1 0x0 PUSH2 0x1CA4 DUP5 DUP3 DUP6 ADD PUSH2 0x1BE9 JUMP JUMPDEST SWAP2 POP POP SWAP3 SWAP2 POP POP JUMP JUMPDEST PUSH1 0x0 DUP1 PUSH1 0x40 DUP4 DUP6 SUB SLT ISZERO PUSH2 0x1CC4 JUMPI PUSH2 0x1CC3 PUSH2 0x297D JUMP JUMPDEST JUMPDEST PUSH1 0x0 PUSH2 0x1CD2 DUP6 DUP3 DUP7 ADD PUSH2 0x1BE9 JUMP JUMPDEST SWAP3 POP POP PUSH1 0x20 PUSH2 0x1CE3 DUP6 DUP3 DUP7 ADD PUSH2 0x1BE9 JUMP JUMPDEST SWAP2 POP POP SWAP3 POP SWAP3 SWAP1 POP JUMP JUMPDEST PUSH1 0x0 DUP1 PUSH1 0x0 PUSH1 0x60 DUP5 DUP7 SUB SLT ISZERO PUSH2 0x1D06 JUMPI PUSH2 0x1D05 PUSH2 0x297D JUMP JUMPDEST JUMPDEST PUSH1 0x0 PUSH2 0x1D14 DUP7 DUP3 DUP8 ADD PUSH2 0x1BE9 JUMP JUMPDEST SWAP4 POP POP PUSH1 0x20 PUSH2 0x1D25 DUP7 DUP3 DUP8 ADD PUSH2 0x1BE9 JUMP JUMPDEST SWAP3 POP POP PUSH1 0x40 PUSH2 0x1D36 DUP7 DUP3 DUP8 ADD PUSH2 0x1C6B JUMP JUMPDEST SWAP2 POP POP SWAP3 POP SWAP3 POP SWAP3 JUMP JUMPDEST PUSH1 0x0 DUP1 PUSH1 0x0 DUP1 PUSH1 0x80 DUP6 DUP8 SUB SLT ISZERO PUSH2 0x1D5A JUMPI PUSH2 0x1D59 PUSH2 0x297D JUMP JUMPDEST JUMPDEST PUSH1 0x0 PUSH2 0x1D68 DUP8 DUP3 DUP9 ADD PUSH2 0x1BE9 JUMP JUMPDEST SWAP5 POP POP PUSH1 0x20 PUSH2 0x1D79 DUP8 DUP3 DUP9 ADD PUSH2 0x1BE9 JUMP JUMPDEST SWAP4 POP POP PUSH1 0x40 PUSH2 0x1D8A DUP8 DUP3 DUP9 ADD PUSH2 0x1C6B JUMP JUMPDEST SWAP3 POP POP PUSH1 0x60 DUP6 ADD CALLDATALOAD PUSH8 0xFFFFFFFFFFFFFFFF DUP2 GT ISZERO PUSH2 0x1DAB JUMPI PUSH2 0x1DAA PUSH2 0x2978 JUMP JUMPDEST JUMPDEST PUSH2 0x1DB7 DUP8 DUP3 DUP9 ADD PUSH2 0x1C3D JUMP JUMPDEST SWAP2 POP POP SWAP3 SWAP6 SWAP2 SWAP5 POP SWAP3 POP JUMP JUMPDEST PUSH1 0x0 DUP1 PUSH1 0x40 DUP4 DUP6 SUB SLT ISZERO PUSH2 0x1DDA JUMPI PUSH2 0x1DD9 PUSH2 0x297D JUMP JUMPDEST JUMPDEST PUSH1 0x0 PUSH2 0x1DE8 DUP6 DUP3 DUP7 ADD PUSH2 0x1BE9 JUMP JUMPDEST SWAP3 POP POP PUSH1 0x20 PUSH2 0x1DF9 DUP6 DUP3 DUP7 ADD PUSH2 0x1BFE JUMP JUMPDEST SWAP2 POP POP SWAP3 POP SWAP3 SWAP1 POP JUMP JUMPDEST PUSH1 0x0 DUP1 PUSH1 0x40 DUP4 DUP6 SUB SLT ISZERO PUSH2 0x1E1A JUMPI PUSH2 0x1E19 PUSH2 0x297D JUMP JUMPDEST JUMPDEST PUSH1 0x0 PUSH2 0x1E28 DUP6 DUP3 DUP7 ADD PUSH2 0x1BE9 JUMP JUMPDEST SWAP3 POP POP PUSH1 0x20 PUSH2 0x1E39 DUP6 DUP3 DUP7 ADD PUSH2 0x1C6B JUMP JUMPDEST SWAP2 POP POP SWAP3 POP SWAP3 SWAP1 POP JUMP JUMPDEST PUSH1 0x0 DUP1 PUSH1 0x0 DUP1 PUSH1 0x80 DUP6 DUP8 SUB SLT ISZERO PUSH2 0x1E5D JUMPI PUSH2 0x1E5C PUSH2 0x297D JUMP JUMPDEST JUMPDEST PUSH1 0x0 PUSH2 0x1E6B DUP8 DUP3 DUP9 ADD PUSH2 0x1BE9 JUMP JUMPDEST SWAP5 POP POP PUSH1 0x20 PUSH2 0x1E7C DUP8 DUP3 DUP9 ADD PUSH2 0x1C6B JUMP JUMPDEST SWAP4 POP POP PUSH1 0x40 PUSH2 0x1E8D DUP8 DUP3 DUP9 ADD PUSH2 0x1C6B JUMP JUMPDEST SWAP3 POP POP PUSH1 0x60 PUSH2 0x1E9E DUP8 DUP3 DUP9 ADD PUSH2 0x1C6B JUMP JUMPDEST SWAP2 POP POP SWAP3 SWAP6 SWAP2 SWAP5 POP SWAP3 POP JUMP JUMPDEST PUSH1 0x0 PUSH1 0x20 DUP3 DUP5 SUB SLT ISZERO PUSH2 0x1EC0 JUMPI PUSH2 0x1EBF PUSH2 0x297D JUMP JUMPDEST JUMPDEST PUSH1 0x0 PUSH2 0x1ECE DUP5 DUP3 DUP6 ADD PUSH2 0x1C13 JUMP JUMPDEST SWAP2 POP POP SWAP3 SWAP2 POP POP JUMP JUMPDEST PUSH1 0x0 PUSH1 0x20 DUP3 DUP5 SUB SLT ISZERO PUSH2 0x1EED JUMPI PUSH2 0x1EEC PUSH2 0x297D JUMP JUMPDEST JUMPDEST PUSH1 0x0 PUSH2 0x1EFB DUP5 DUP3 DUP6 ADD PUSH2 0x1C28 JUMP JUMPDEST SWAP2 POP POP SWAP3 SWAP2 POP POP JUMP JUMPDEST PUSH1 0x0 PUSH1 0x20 DUP3 DUP5 SUB SLT ISZERO PUSH2 0x1F1A JUMPI PUSH2 0x1F19 PUSH2 0x297D JUMP JUMPDEST JUMPDEST PUSH1 0x0 PUSH2 0x1F28 DUP5 DUP3 DUP6 ADD PUSH2 0x1C6B JUMP JUMPDEST SWAP2 POP POP SWAP3 SWAP2 POP POP JUMP JUMPDEST PUSH2 0x1F3A DUP2 PUSH2 0x26F0 JUMP JUMPDEST DUP3 MSTORE POP POP JUMP JUMPDEST PUSH2 0x1F49 DUP2 PUSH2 0x2702 JUMP JUMPDEST DUP3 MSTORE POP POP JUMP JUMPDEST PUSH1 0x0 PUSH2 0x1F5A DUP3 PUSH2 0x25F2 JUMP JUMPDEST PUSH2 0x1F64 DUP2 DUP6 PUSH2 0x2608 JUMP JUMPDEST SWAP4 POP PUSH2 0x1F74 DUP2 DUP6 PUSH1 0x20 DUP7 ADD PUSH2 0x2773 JUMP JUMPDEST PUSH2 0x1F7D DUP2 PUSH2 0x2982 JUMP JUMPDEST DUP5 ADD SWAP2 POP POP SWAP3 SWAP2 POP POP JUMP JUMPDEST PUSH1 0x0 PUSH2 0x1F93 DUP3 PUSH2 0x25FD JUMP JUMPDEST PUSH2 0x1F9D DUP2 DUP6 PUSH2 0x2619 JUMP JUMPDEST SWAP4 POP PUSH2 0x1FAD DUP2 DUP6 PUSH1 0x20 DUP7 ADD PUSH2 0x2773 JUMP JUMPDEST PUSH2 0x1FB6 DUP2 PUSH2 0x2982 JUMP JUMPDEST DUP5 ADD SWAP2 POP POP SWAP3 SWAP2 POP POP JUMP JUMPDEST PUSH1 0x0 PUSH2 0x1FCC DUP3 PUSH2 0x25FD JUMP JUMPDEST PUSH2 0x1FD6 DUP2 DUP6 PUSH2 0x262A JUMP JUMPDEST SWAP4 POP PUSH2 0x1FE6 DUP2 DUP6 PUSH1 0x20 DUP7 ADD PUSH2 0x2773 JUMP JUMPDEST DUP1 DUP5 ADD SWAP2 POP POP SWAP3 SWAP2 POP POP JUMP JUMPDEST PUSH1 0x0 PUSH2 0x1FFF PUSH1 0x32 DUP4 PUSH2 0x2619 JUMP JUMPDEST SWAP2 POP PUSH2 0x200A DUP3 PUSH2 0x2993 JUMP JUMPDEST PUSH1 0x40 DUP3 ADD SWAP1 POP SWAP2 SWAP1 POP JUMP JUMPDEST PUSH1 0x0 PUSH2 0x2022 PUSH1 0x26 DUP4 PUSH2 0x2619 JUMP JUMPDEST SWAP2 POP PUSH2 0x202D DUP3 PUSH2 0x29E2 JUMP JUMPDEST PUSH1 0x40 DUP3 ADD SWAP1 POP SWAP2 SWAP1 POP JUMP JUMPDEST PUSH1 0x0 PUSH2 0x2045 PUSH1 0x25 DUP4 PUSH2 0x2619 JUMP JUMPDEST SWAP2 POP PUSH2 0x2050 DUP3 PUSH2 0x2A31 JUMP JUMPDEST PUSH1 0x40 DUP3 ADD SWAP1 POP SWAP2 SWAP1 POP JUMP JUMPDEST PUSH1 0x0 PUSH2 0x2068 PUSH1 0x1C DUP4 PUSH2 0x2619 JUMP JUMPDEST SWAP2 POP PUSH2 0x2073 DUP3 PUSH2 0x2A80 JUMP JUMPDEST PUSH1 0x20 DUP3 ADD SWAP1 POP SWAP2 SWAP1 POP JUMP JUMPDEST PUSH1 0x0 PUSH2 0x208B PUSH1 0x24 DUP4 PUSH2 0x2619 JUMP JUMPDEST SWAP2 POP PUSH2 0x2096 DUP3 PUSH2 0x2AA9 JUMP JUMPDEST PUSH1 0x40 DUP3 ADD SWAP1 POP SWAP2 SWAP1 POP JUMP JUMPDEST PUSH1 0x0 PUSH2 0x20AE PUSH1 0x19 DUP4 PUSH2 0x2619 JUMP JUMPDEST SWAP2 POP PUSH2 0x20B9 DUP3 PUSH2 0x2AF8 JUMP JUMPDEST PUSH1 0x20 DUP3 ADD SWAP1 POP SWAP2 SWAP1 POP JUMP JUMPDEST PUSH1 0x0 PUSH2 0x20D1 PUSH1 0x2C DUP4 PUSH2 0x2619 JUMP JUMPDEST SWAP2 POP PUSH2 0x20DC DUP3 PUSH2 0x2B21 JUMP JUMPDEST PUSH1 0x40 DUP3 ADD SWAP1 POP SWAP2 SWAP1 POP JUMP JUMPDEST PUSH1 0x0 PUSH2 0x20F4 PUSH1 0x38 DUP4 PUSH2 0x2619 JUMP JUMPDEST SWAP2 POP PUSH2 0x20FF DUP3 PUSH2 0x2B70 JUMP JUMPDEST PUSH1 0x40 DUP3 ADD SWAP1 POP SWAP2 SWAP1 POP JUMP JUMPDEST PUSH1 0x0 PUSH2 0x2117 PUSH1 0x2A DUP4 PUSH2 0x2619 JUMP JUMPDEST SWAP2 POP PUSH2 0x2122 DUP3 PUSH2 0x2BBF JUMP JUMPDEST PUSH1 0x40 DUP3 ADD SWAP1 POP SWAP2 SWAP1 POP JUMP JUMPDEST PUSH1 0x0 PUSH2 0x213A PUSH1 0x29 DUP4 PUSH2 0x2619 JUMP JUMPDEST SWAP2 POP PUSH2 0x2145 DUP3 PUSH2 0x2C0E JUMP JUMPDEST PUSH1 0x40 DUP3 ADD SWAP1 POP SWAP2 SWAP1 POP JUMP JUMPDEST PUSH1 0x0 PUSH2 0x215D PUSH1 0x20 DUP4 PUSH2 0x2619 JUMP JUMPDEST SWAP2 POP PUSH2 0x2168 DUP3 PUSH2 0x2C5D JUMP JUMPDEST PUSH1 0x20 DUP3 ADD SWAP1 POP SWAP2 SWAP1 POP JUMP JUMPDEST PUSH1 0x0 PUSH2 0x2180 PUSH1 0x2C DUP4 PUSH2 0x2619 JUMP JUMPDEST SWAP2 POP PUSH2 0x218B DUP3 PUSH2 0x2C86 JUMP JUMPDEST PUSH1 0x40 DUP3 ADD SWAP1 POP SWAP2 SWAP1 POP JUMP JUMPDEST PUSH1 0x0 PUSH2 0x21A3 PUSH1 0x20 DUP4 PUSH2 0x2619 JUMP JUMPDEST SWAP2 POP PUSH2 0x21AE DUP3 PUSH2 0x2CD5 JUMP JUMPDEST PUSH1 0x20 DUP3 ADD SWAP1 POP SWAP2 SWAP1 POP JUMP JUMPDEST PUSH1 0x0 PUSH2 0x21C6 PUSH1 0x2F DUP4 PUSH2 0x2619 JUMP JUMPDEST SWAP2 POP PUSH2 0x21D1 DUP3 PUSH2 0x2CFE JUMP JUMPDEST PUSH1 0x40 DUP3 ADD SWAP1 POP SWAP2 SWAP1 POP JUMP JUMPDEST PUSH1 0x0 PUSH2 0x21E9 PUSH1 0x21 DUP4 PUSH2 0x2619 JUMP JUMPDEST SWAP2 POP PUSH2 0x21F4 DUP3 PUSH2 0x2D4D JUMP JUMPDEST PUSH1 0x40 DUP3 ADD SWAP1 POP SWAP2 SWAP1 POP JUMP JUMPDEST PUSH1 0x0 PUSH2 0x220C PUSH1 0x31 DUP4 PUSH2 0x2619 JUMP JUMPDEST SWAP2 POP PUSH2 0x2217 DUP3 PUSH2 0x2D9C JUMP JUMPDEST PUSH1 0x40 DUP3 ADD SWAP1 POP SWAP2 SWAP1 POP JUMP JUMPDEST PUSH1 0x0 PUSH2 0x222F PUSH1 0x30 DUP4 PUSH2 0x2619 JUMP JUMPDEST SWAP2 POP PUSH2 0x223A DUP3 PUSH2 0x2DEB JUMP JUMPDEST PUSH1 0x40 DUP3 ADD SWAP1 POP SWAP2 SWAP1 POP JUMP JUMPDEST PUSH2 0x224E DUP2 PUSH2 0x275A JUMP JUMPDEST DUP3 MSTORE POP POP JUMP JUMPDEST PUSH1 0x0 PUSH2 0x2260 DUP3 DUP6 PUSH2 0x1FC1 JUMP JUMPDEST SWAP2 POP PUSH2 0x226C DUP3 DUP5 PUSH2 0x1FC1 JUMP JUMPDEST SWAP2 POP DUP2 SWAP1 POP SWAP4 SWAP3 POP POP POP JUMP JUMPDEST PUSH1 0x0 PUSH1 0x20 DUP3 ADD SWAP1 POP PUSH2 0x228D PUSH1 0x0 DUP4 ADD DUP5 PUSH2 0x1F31 JUMP JUMPDEST SWAP3 SWAP2 POP POP JUMP JUMPDEST PUSH1 0x0 PUSH1 0x80 DUP3 ADD SWAP1 POP PUSH2 0x22A8 PUSH1 0x0 DUP4 ADD DUP8 PUSH2 0x1F31 JUMP JUMPDEST PUSH2 0x22B5 PUSH1 0x20 DUP4 ADD DUP7 PUSH2 0x1F31 JUMP JUMPDEST PUSH2 0x22C2 PUSH1 0x40 DUP4 ADD DUP6 PUSH2 0x2245 JUMP JUMPDEST DUP2 DUP2 SUB PUSH1 0x60 DUP4 ADD MSTORE PUSH2 0x22D4 DUP2 DUP5 PUSH2 0x1F4F JUMP JUMPDEST SWAP1 POP SWAP6 SWAP5 POP POP POP POP POP JUMP JUMPDEST PUSH1 0x0 PUSH1 0x80 DUP3 ADD SWAP1 POP PUSH2 0x22F4 PUSH1 0x0 DUP4 ADD DUP8 PUSH2 0x1F31 JUMP JUMPDEST PUSH2 0x2301 PUSH1 0x20 DUP4 ADD DUP7 PUSH2 0x2245 JUMP JUMPDEST PUSH2 0x230E PUSH1 0x40 DUP4 ADD DUP6 PUSH2 0x2245 JUMP JUMPDEST PUSH2 0x231B PUSH1 0x60 DUP4 ADD DUP5 PUSH2 0x2245 JUMP JUMPDEST SWAP6 SWAP5 POP POP POP POP POP JUMP JUMPDEST PUSH1 0x0 PUSH1 0x20 DUP3 ADD SWAP1 POP PUSH2 0x2339 PUSH1 0x0 DUP4 ADD DUP5 PUSH2 0x1F40 JUMP JUMPDEST SWAP3 SWAP2 POP POP JUMP JUMPDEST PUSH1 0x0 PUSH1 0x20 DUP3 ADD SWAP1 POP DUP2 DUP2 SUB PUSH1 0x0 DUP4 ADD MSTORE PUSH2 0x2359 DUP2 DUP5 PUSH2 0x1F88 JUMP JUMPDEST SWAP1 POP SWAP3 SWAP2 POP POP JUMP JUMPDEST PUSH1 0x0 PUSH1 0x20 DUP3 ADD SWAP1 POP DUP2 DUP2 SUB PUSH1 0x0 DUP4 ADD MSTORE PUSH2 0x237A DUP2 PUSH2 0x1FF2 JUMP JUMPDEST SWAP1 POP SWAP2 SWAP1 POP JUMP JUMPDEST PUSH1 0x0 PUSH1 0x20 DUP3 ADD SWAP1 POP DUP2 DUP2 SUB PUSH1 0x0 DUP4 ADD MSTORE PUSH2 0x239A DUP2 PUSH2 0x2015 JUMP JUMPDEST SWAP1 POP SWAP2 SWAP1 POP JUMP JUMPDEST PUSH1 0x0 PUSH1 0x20 DUP3 ADD SWAP1 POP DUP2 DUP2 SUB PUSH1 0x0 DUP4 ADD MSTORE PUSH2 0x23BA DUP2 PUSH2 0x2038 JUMP JUMPDEST SWAP1 POP SWAP2 SWAP1 POP JUMP JUMPDEST PUSH1 0x0 PUSH1 0x20 DUP3 ADD SWAP1 POP DUP2 DUP2 SUB PUSH1 0x0 DUP4 ADD MSTORE PUSH2 0x23DA DUP2 PUSH2 0x205B JUMP JUMPDEST SWAP1 POP SWAP2 SWAP1 POP JUMP JUMPDEST PUSH1 0x0 PUSH1 0x20 DUP3 ADD SWAP1 POP DUP2 DUP2 SUB PUSH1 0x0 DUP4 ADD MSTORE PUSH2 0x23FA DUP2 PUSH2 0x207E JUMP JUMPDEST SWAP1 POP SWAP2 SWAP1 POP JUMP JUMPDEST PUSH1 0x0 PUSH1 0x20 DUP3 ADD SWAP1 POP DUP2 DUP2 SUB PUSH1 0x0 DUP4 ADD MSTORE PUSH2 0x241A DUP2 PUSH2 0x20A1 JUMP JUMPDEST SWAP1 POP SWAP2 SWAP1 POP JUMP JUMPDEST PUSH1 0x0 PUSH1 0x20 DUP3 ADD SWAP1 POP DUP2 DUP2 SUB PUSH1 0x0 DUP4 ADD MSTORE PUSH2 0x243A DUP2 PUSH2 0x20C4 JUMP JUMPDEST SWAP1 POP SWAP2 SWAP1 POP JUMP JUMPDEST PUSH1 0x0 PUSH1 0x20 DUP3 ADD SWAP1 POP DUP2 DUP2 SUB PUSH1 0x0 DUP4 ADD MSTORE PUSH2 0x245A DUP2 PUSH2 0x20E7 JUMP JUMPDEST SWAP1 POP SWAP2 SWAP1 POP JUMP JUMPDEST PUSH1 0x0 PUSH1 0x20 DUP3 ADD SWAP1 POP DUP2 DUP2 SUB PUSH1 0x0 DUP4 ADD MSTORE PUSH2 0x247A DUP2 PUSH2 0x210A JUMP JUMPDEST SWAP1 POP SWAP2 SWAP1 POP JUMP JUMPDEST PUSH1 0x0 PUSH1 0x20 DUP3 ADD SWAP1 POP DUP2 DUP2 SUB PUSH1 0x0 DUP4 ADD MSTORE PUSH2 0x249A DUP2 PUSH2 0x212D JUMP JUMPDEST SWAP1 POP SWAP2 SWAP1 POP JUMP JUMPDEST PUSH1 0x0 PUSH1 0x20 DUP3 ADD SWAP1 POP DUP2 DUP2 SUB PUSH1 0x0 DUP4 ADD MSTORE PUSH2 0x24BA DUP2 PUSH2 0x2150 JUMP JUMPDEST SWAP1 POP SWAP2 SWAP1 POP JUMP JUMPDEST PUSH1 0x0 PUSH1 0x20 DUP3 ADD SWAP1 POP DUP2 DUP2 SUB PUSH1 0x0 DUP4 ADD MSTORE PUSH2 0x24DA DUP2 PUSH2 0x2173 JUMP JUMPDEST SWAP1 POP SWAP2 SWAP1 POP JUMP JUMPDEST PUSH1 0x0 PUSH1 0x20 DUP3 ADD SWAP1 POP DUP2 DUP2 SUB PUSH1 0x0 DUP4 ADD MSTORE PUSH2 0x24FA DUP2 PUSH2 0x2196 JUMP JUMPDEST SWAP1 POP SWAP2 SWAP1 POP JUMP JUMPDEST PUSH1 0x0 PUSH1 0x20 DUP3 ADD SWAP1 POP DUP2 DUP2 SUB PUSH1 0x0 DUP4 ADD MSTORE PUSH2 0x251A DUP2 PUSH2 0x21B9 JUMP JUMPDEST SWAP1 POP SWAP2 SWAP1 POP JUMP JUMPDEST PUSH1 0x0 PUSH1 0x20 DUP3 ADD SWAP1 POP DUP2 DUP2 SUB PUSH1 0x0 DUP4 ADD MSTORE PUSH2 0x253A DUP2 PUSH2 0x21DC JUMP JUMPDEST SWAP1 POP SWAP2 SWAP1 POP JUMP JUMPDEST PUSH1 0x0 PUSH1 0x20 DUP3 ADD SWAP1 POP DUP2 DUP2 SUB PUSH1 0x0 DUP4 ADD MSTORE PUSH2 0x255A DUP2 PUSH2 0x21FF JUMP JUMPDEST SWAP1 POP SWAP2 SWAP1 POP JUMP JUMPDEST PUSH1 0x0 PUSH1 0x20 DUP3 ADD SWAP1 POP DUP2 DUP2 SUB PUSH1 0x0 DUP4 ADD MSTORE PUSH2 0x257A DUP2 PUSH2 0x2222 JUMP JUMPDEST SWAP1 POP SWAP2 SWAP1 POP JUMP JUMPDEST PUSH1 0x0 PUSH1 0x20 DUP3 ADD SWAP1 POP PUSH2 0x2596 PUSH1 0x0 DUP4 ADD DUP5 PUSH2 0x2245 JUMP JUMPDEST SWAP3 SWAP2 POP POP JUMP JUMPDEST PUSH1 0x0 PUSH2 0x25A6 PUSH2 0x25B7 JUMP JUMPDEST SWAP1 POP PUSH2 0x25B2 DUP3 DUP3 PUSH2 0x27D8 JUMP JUMPDEST SWAP2 SWAP1 POP JUMP JUMPDEST PUSH1 0x0 PUSH1 0x40 MLOAD SWAP1 POP SWAP1 JUMP JUMPDEST PUSH1 0x0 PUSH8 0xFFFFFFFFFFFFFFFF DUP3 GT ISZERO PUSH2 0x25DC JUMPI PUSH2 0x25DB PUSH2 0x293F JUMP JUMPDEST JUMPDEST PUSH2 0x25E5 DUP3 PUSH2 0x2982 JUMP JUMPDEST SWAP1 POP PUSH1 0x20 DUP2 ADD SWAP1 POP SWAP2 SWAP1 POP JUMP JUMPDEST PUSH1 0x0 DUP2 MLOAD SWAP1 POP SWAP2 SWAP1 POP JUMP JUMPDEST PUSH1 0x0 DUP2 MLOAD SWAP1 POP SWAP2 SWAP1 POP JUMP JUMPDEST PUSH1 0x0 DUP3 DUP3 MSTORE PUSH1 0x20 DUP3 ADD SWAP1 POP SWAP3 SWAP2 POP POP JUMP JUMPDEST PUSH1 0x0 DUP3 DUP3 MSTORE PUSH1 0x20 DUP3 ADD SWAP1 POP SWAP3 SWAP2 POP POP JUMP JUMPDEST PUSH1 0x0 DUP2 SWAP1 POP SWAP3 SWAP2 POP POP JUMP JUMPDEST PUSH1 0x0 PUSH2 0x2640 DUP3 PUSH2 0x275A JUMP JUMPDEST SWAP2 POP PUSH2 0x264B DUP4 PUSH2 0x275A JUMP JUMPDEST SWAP3 POP DUP3 PUSH32 0xFFFFFFFFFFFFFFFFFFFFFFFFFFFFFFFFFFFFFFFFFFFFFFFFFFFFFFFFFFFFFFFF SUB DUP3 GT ISZERO PUSH2 0x2680 JUMPI PUSH2 0x267F PUSH2 0x2883 JUMP JUMPDEST JUMPDEST DUP3 DUP3 ADD SWAP1 POP SWAP3 SWAP2 POP POP JUMP JUMPDEST PUSH1 0x0 PUSH2 0x2696 DUP3 PUSH2 0x275A JUMP JUMPDEST SWAP2 POP PUSH2 0x26A1 DUP4 PUSH2 0x275A JUMP JUMPDEST SWAP3 POP DUP3 PUSH2 0x26B1 JUMPI PUSH2 0x26B0 PUSH2 0x28B2 JUMP JUMPDEST JUMPDEST DUP3 DUP3 DIV SWAP1 POP SWAP3 SWAP2 POP POP JUMP JUMPDEST PUSH1 0x0 PUSH2 0x26C7 DUP3 PUSH2 0x275A JUMP JUMPDEST SWAP2 POP PUSH2 0x26D2 DUP4 PUSH2 0x275A JUMP JUMPDEST SWAP3 POP DUP3 DUP3 LT ISZERO PUSH2 0x26E5 JUMPI PUSH2 0x26E4 PUSH2 0x2883 JUMP JUMPDEST JUMPDEST DUP3 DUP3 SUB SWAP1 POP SWAP3 SWAP2 POP POP JUMP JUMPDEST PUSH1 0x0 PUSH2 0x26FB DUP3 PUSH2 0x273A JUMP JUMPDEST SWAP1 POP SWAP2 SWAP1 POP JUMP JUMPDEST PUSH1 0x0 DUP2 ISZERO ISZERO SWAP1 POP SWAP2 SWAP1 POP JUMP JUMPDEST PUSH1 0x0 PUSH32 0xFFFFFFFF00000000000000000000000000000000000000000000000000000000 DUP3 AND SWAP1 POP SWAP2 SWAP1 POP JUMP JUMPDEST PUSH1 0x0 PUSH20 0xFFFFFFFFFFFFFFFFFFFFFFFFFFFFFFFFFFFFFFFF DUP3 AND SWAP1 POP SWAP2 SWAP1 POP JUMP JUMPDEST PUSH1 0x0 DUP2 SWAP1 POP SWAP2 SWAP1 POP JUMP JUMPDEST DUP3 DUP2 DUP4 CALLDATACOPY PUSH1 0x0 DUP4 DUP4 ADD MSTORE POP POP POP JUMP JUMPDEST PUSH1 0x0 JUMPDEST DUP4 DUP2 LT ISZERO PUSH2 0x2791 JUMPI DUP1 DUP3 ADD MLOAD DUP2 DUP5 ADD MSTORE PUSH1 0x20 DUP2 ADD SWAP1 POP PUSH2 0x2776 JUMP JUMPDEST DUP4 DUP2 GT ISZERO PUSH2 0x27A0 JUMPI PUSH1 0x0 DUP5 DUP5 ADD MSTORE JUMPDEST POP POP POP POP JUMP JUMPDEST PUSH1 0x0 PUSH1 0x2 DUP3 DIV SWAP1 POP PUSH1 0x1 DUP3 AND DUP1 PUSH2 0x27BE JUMPI PUSH1 0x7F DUP3 AND SWAP2 POP JUMPDEST PUSH1 0x20 DUP3 LT DUP2 EQ ISZERO PUSH2 0x27D2 JUMPI PUSH2 0x27D1 PUSH2 0x28E1 JUMP JUMPDEST JUMPDEST POP SWAP2 SWAP1 POP JUMP JUMPDEST PUSH2 0x27E1 DUP3 PUSH2 0x2982 JUMP JUMPDEST DUP2 ADD DUP2 DUP2 LT PUSH8 0xFFFFFFFFFFFFFFFF DUP3 GT OR ISZERO PUSH2 0x2800 JUMPI PUSH2 0x27FF PUSH2 0x293F JUMP JUMPDEST JUMPDEST DUP1 PUSH1 0x40 MSTORE POP POP POP JUMP JUMPDEST PUSH1 0x0 PUSH2 0x2814 DUP3 PUSH2 0x275A JUMP JUMPDEST SWAP2 POP PUSH32 0xFFFFFFFFFFFFFFFFFFFFFFFFFFFFFFFFFFFFFFFFFFFFFFFFFFFFFFFFFFFFFFFF DUP3 EQ ISZERO PUSH2 0x2847 JUMPI PUSH2 0x2846 PUSH2 0x2883 JUMP JUMPDEST JUMPDEST PUSH1 0x1 DUP3 ADD SWAP1 POP SWAP2 SWAP1 POP JUMP JUMPDEST PUSH1 0x0 PUSH2 0x285D DUP3 PUSH2 0x275A JUMP JUMPDEST SWAP2 POP PUSH2 0x2868 DUP4 PUSH2 0x275A JUMP JUMPDEST SWAP3 POP DUP3 PUSH2 0x2878 JUMPI PUSH2 0x2877 PUSH2 0x28B2 JUMP JUMPDEST JUMPDEST DUP3 DUP3 MOD SWAP1 POP SWAP3 SWAP2 POP POP JUMP JUMPDEST PUSH32 0x4E487B7100000000000000000000000000000000000000000000000000000000 PUSH1 0x0 MSTORE PUSH1 0x11 PUSH1 0x4 MSTORE PUSH1 0x24 PUSH1 0x0 REVERT JUMPDEST PUSH32 0x4E487B7100000000000000000000000000000000000000000000000000000000 PUSH1 0x0 MSTORE PUSH1 0x12 PUSH1 0x4 MSTORE PUSH1 0x24 PUSH1 0x0 REVERT JUMPDEST PUSH32 0x4E487B7100000000000000000000000000000000000000000000000000000000 PUSH1 0x0 MSTORE PUSH1 0x22 PUSH1 0x4 MSTORE PUSH1 0x24 PUSH1 0x0 REVERT JUMPDEST PUSH32 0x4E487B7100000000000000000000000000000000000000000000000000000000 PUSH1 0x0 MSTORE PUSH1 0x32 PUSH1 0x4 MSTORE PUSH1 0x24 PUSH1 0x0 REVERT JUMPDEST PUSH32 0x4E487B7100000000000000000000000000000000000000000000000000000000 PUSH1 0x0 MSTORE PUSH1 0x41 PUSH1 0x4 MSTORE PUSH1 0x24 PUSH1 0x0 REVERT JUMPDEST PUSH1 0x0 DUP1 REVERT JUMPDEST PUSH1 0x0 DUP1 REVERT JUMPDEST PUSH1 0x0 DUP1 REVERT JUMPDEST PUSH1 0x0 DUP1 REVERT JUMPDEST PUSH1 0x0 PUSH1 0x1F NOT PUSH1 0x1F DUP4 ADD AND SWAP1 POP SWAP2 SWAP1 POP JUMP JUMPDEST PUSH32 0x4552433732313A207472616E7366657220746F206E6F6E204552433732315265 PUSH1 0x0 DUP3 ADD MSTORE PUSH32 0x63656976657220696D706C656D656E7465720000000000000000000000000000 PUSH1 0x20 DUP3 ADD MSTORE POP JUMP JUMPDEST PUSH32 0x4F776E61626C653A206E6577206F776E657220697320746865207A65726F2061 PUSH1 0x0 DUP3 ADD MSTORE PUSH32 0x6464726573730000000000000000000000000000000000000000000000000000 PUSH1 0x20 DUP3 ADD MSTORE POP JUMP JUMPDEST PUSH32 0x4552433732313A207472616E736665722066726F6D20696E636F727265637420 PUSH1 0x0 DUP3 ADD MSTORE PUSH32 0x6F776E6572000000000000000000000000000000000000000000000000000000 PUSH1 0x20 DUP3 ADD MSTORE POP JUMP JUMPDEST PUSH32 0x4552433732313A20746F6B656E20616C7265616479206D696E74656400000000 PUSH1 0x0 DUP3 ADD MSTORE POP JUMP JUMPDEST PUSH32 0x4552433732313A207472616E7366657220746F20746865207A65726F20616464 PUSH1 0x0 DUP3 ADD MSTORE PUSH32 0x7265737300000000000000000000000000000000000000000000000000000000 PUSH1 0x20 DUP3 ADD MSTORE POP JUMP JUMPDEST PUSH32 0x4552433732313A20617070726F766520746F2063616C6C657200000000000000 PUSH1 0x0 DUP3 ADD MSTORE POP JUMP JUMPDEST PUSH32 0x4552433732313A206F70657261746F7220717565727920666F72206E6F6E6578 PUSH1 0x0 DUP3 ADD MSTORE PUSH32 0x697374656E7420746F6B656E0000000000000000000000000000000000000000 PUSH1 0x20 DUP3 ADD MSTORE POP JUMP JUMPDEST PUSH32 0x4552433732313A20617070726F76652063616C6C6572206973206E6F74206F77 PUSH1 0x0 DUP3 ADD MSTORE PUSH32 0x6E6572206E6F7220617070726F76656420666F7220616C6C0000000000000000 PUSH1 0x20 DUP3 ADD MSTORE POP JUMP JUMPDEST PUSH32 0x4552433732313A2062616C616E636520717565727920666F7220746865207A65 PUSH1 0x0 DUP3 ADD MSTORE PUSH32 0x726F206164647265737300000000000000000000000000000000000000000000 PUSH1 0x20 DUP3 ADD MSTORE POP JUMP JUMPDEST PUSH32 0x4552433732313A206F776E657220717565727920666F72206E6F6E6578697374 PUSH1 0x0 DUP3 ADD MSTORE PUSH32 0x656E7420746F6B656E0000000000000000000000000000000000000000000000 PUSH1 0x20 DUP3 ADD MSTORE POP JUMP JUMPDEST PUSH32 0x4552433732313A206D696E7420746F20746865207A65726F2061646472657373 PUSH1 0x0 DUP3 ADD MSTORE POP JUMP JUMPDEST PUSH32 0x4552433732313A20617070726F76656420717565727920666F72206E6F6E6578 PUSH1 0x0 DUP3 ADD MSTORE PUSH32 0x697374656E7420746F6B656E0000000000000000000000000000000000000000 PUSH1 0x20 DUP3 ADD MSTORE POP JUMP JUMPDEST PUSH32 0x4F776E61626C653A2063616C6C6572206973206E6F7420746865206F776E6572 PUSH1 0x0 DUP3 ADD MSTORE POP JUMP JUMPDEST PUSH32 0x4552433732314D657461646174613A2055524920717565727920666F72206E6F PUSH1 0x0 DUP3 ADD MSTORE PUSH32 0x6E6578697374656E7420746F6B656E0000000000000000000000000000000000 PUSH1 0x20 DUP3 ADD MSTORE POP JUMP JUMPDEST PUSH32 0x4552433732313A20617070726F76616C20746F2063757272656E74206F776E65 PUSH1 0x0 DUP3 ADD MSTORE PUSH32 0x7200000000000000000000000000000000000000000000000000000000000000 PUSH1 0x20 DUP3 ADD MSTORE POP JUMP JUMPDEST PUSH32 0x4552433732313A207472616E736665722063616C6C6572206973206E6F74206F PUSH1 0x0 DUP3 ADD MSTORE PUSH32 0x776E6572206E6F7220617070726F766564000000000000000000000000000000 PUSH1 0x20 DUP3 ADD MSTORE POP JUMP JUMPDEST PUSH32 0x4552433732314275726E61626C653A2063616C6C6572206973206E6F74206F77 PUSH1 0x0 DUP3 ADD MSTORE PUSH32 0x6E6572206E6F7220617070726F76656400000000000000000000000000000000 PUSH1 0x20 DUP3 ADD MSTORE POP JUMP JUMPDEST PUSH2 0x2E43 DUP2 PUSH2 0x26F0 JUMP JUMPDEST DUP2 EQ PUSH2 0x2E4E JUMPI PUSH1 0x0 DUP1 REVERT JUMPDEST POP JUMP JUMPDEST PUSH2 0x2E5A DUP2 PUSH2 0x2702 JUMP JUMPDEST DUP2 EQ PUSH2 0x2E65 JUMPI PUSH1 0x0 DUP1 REVERT JUMPDEST POP JUMP JUMPDEST PUSH2 0x2E71 DUP2 PUSH2 0x270E JUMP JUMPDEST DUP2 EQ PUSH2 0x2E7C JUMPI PUSH1 0x0 DUP1 REVERT JUMPDEST POP JUMP JUMPDEST PUSH2 0x2E88 DUP2 PUSH2 0x275A JUMP JUMPDEST DUP2 EQ PUSH2 0x2E93 JUMPI PUSH1 0x0 DUP1 REVERT JUMPDEST POP JUMP INVALID LOG2 PUSH5 0x6970667358 0x22 SLT KECCAK256 DUP14 0xC8 0xC9 0xB0 CALLVALUE 0x49 SUB GT LOG0 POP 0xC6 SGT 0xEB DUP4 DUP3 SDIV 0x2D CODESIZE SWAP7 0xE3 CHAINID DUP6 0xC PUSH18 0xED75903BE0B43D9A64736F6C634300080700 CALLER LOG2 PUSH5 0x6970667358 0x22 SLT KECCAK256 0x4D DUP3 ADD 0x5C PUSH30 0xF22390FD527874BFCE401FC33388D5B7D87023B0FC905AC35022B264736F PUSH13 0x63430008070033000000000000 "
        },
        "gasEstimates": {
            "creation": {
                "codeDepositCost": "2694800",
                "executionCost": "2930",
                "totalCost": "2697730"
            },
            "external": {
                "createNew(uint256,uint256,uint256)": "infinite"
            }
        },
        "methodIdentifiers": {
            "createNew(uint256,uint256,uint256)": "d7b3e2fe"
        }
    },
    "abi": [
        {
            "inputs": [
                {
                    "internalType": "uint256",
                    "name": "_brandId",
                    "type": "uint256"
                },
                {
                    "internalType": "uint256",
                    "name": "_productReference",
                    "type": "uint256"
                },
                {
                    "internalType": "uint256",
                    "name": "_productIdentifier",
                    "type": "uint256"
                }
            ],
            "name": "createNew",
            "outputs": [],
            "stateMutability": "nonpayable",
            "type": "function"
        }
    ]
}